{
  "_format": "hh-sol-artifact-1",
  "contractName": "TransferDemo",
  "sourceName": "contracts/TransferDemo.sol",
  "abi": [
    {
      "inputs": [],
      "stateMutability": "nonpayable",
      "type": "constructor"
    },
    {
      "anonymous": false,
      "inputs": [
        {
          "indexed": true,
          "internalType": "address",
          "name": "from",
          "type": "address"
        },
        {
          "indexed": false,
          "internalType": "uint256",
          "name": "amount",
          "type": "uint256"
        }
      ],
      "name": "Deposit",
      "type": "event"
    },
    {
      "anonymous": false,
      "inputs": [
        {
          "indexed": true,
          "internalType": "address",
          "name": "from",
          "type": "address"
        },
        {
          "indexed": true,
          "internalType": "address",
          "name": "to",
          "type": "address"
        },
        {
          "indexed": false,
          "internalType": "uint256",
          "name": "amount",
          "type": "uint256"
        }
      ],
      "name": "Transfer",
      "type": "event"
    },
    {
      "anonymous": false,
      "inputs": [
        {
          "indexed": true,
          "internalType": "address",
          "name": "to",
          "type": "address"
        },
        {
          "indexed": false,
          "internalType": "uint256",
          "name": "amount",
          "type": "uint256"
        }
      ],
      "name": "Withdraw",
      "type": "event"
    },
    {
      "inputs": [
        {
          "internalType": "address",
          "name": "",
          "type": "address"
        }
      ],
      "name": "balances",
      "outputs": [
        {
          "internalType": "uint256",
          "name": "",
          "type": "uint256"
        }
      ],
      "stateMutability": "view",
      "type": "function"
    },
    {
      "inputs": [],
      "name": "contractBalance",
      "outputs": [
        {
          "internalType": "uint256",
          "name": "",
          "type": "uint256"
        }
      ],
      "stateMutability": "view",
      "type": "function"
    },
    {
      "inputs": [],
      "name": "deposit",
      "outputs": [],
      "stateMutability": "payable",
      "type": "function"
    },
    {
      "inputs": [
        {
          "internalType": "address payable",
          "name": "to",
          "type": "address"
        }
      ],
      "name": "directTransfer",
      "outputs": [],
      "stateMutability": "payable",
      "type": "function"
    },
    {
      "inputs": [
        {
          "internalType": "address",
          "name": "user",
          "type": "address"
        }
      ],
      "name": "getBalance",
      "outputs": [
        {
          "internalType": "uint256",
          "name": "",
          "type": "uint256"
        }
      ],
      "stateMutability": "view",
      "type": "function"
    },
    {
      "inputs": [],
      "name": "getContractBalance",
      "outputs": [
        {
          "internalType": "uint256",
          "name": "",
          "type": "uint256"
        }
      ],
      "stateMutability": "view",
      "type": "function"
    },
    {
      "inputs": [],
      "name": "owner",
      "outputs": [
        {
          "internalType": "address",
          "name": "",
          "type": "address"
        }
      ],
      "stateMutability": "view",
      "type": "function"
    },
    {
      "inputs": [
        {
          "internalType": "address payable",
          "name": "to",
          "type": "address"
        },
        {
          "internalType": "uint256",
          "name": "amount",
          "type": "uint256"
        }
      ],
      "name": "transferTo",
      "outputs": [],
      "stateMutability": "nonpayable",
      "type": "function"
    },
    {
      "inputs": [
        {
          "internalType": "uint256",
          "name": "amount",
          "type": "uint256"
        }
      ],
      "name": "withdraw",
      "outputs": [],
      "stateMutability": "nonpayable",
      "type": "function"
    },
    {
      "stateMutability": "payable",
      "type": "receive"
    }
  ],
  "bytecode": "0x608060405234801561001057600080fd5b50336000806101000a81548173ffffffffffffffffffffffffffffffffffffffff021916908373ffffffffffffffffffffffffffffffffffffffff160217905550610c0f806100606000396000f3fe60806040526004361061008a5760003560e01c80636f9fb98a116100595780636f9fb98a146101495780638b7afe2e146101745780638da5cb5b1461019f578063d0e30db0146101ca578063f8b2cb4f146101d457610099565b80630603066a1461009e57806327e235e3146100ba5780632ccb1b30146100f75780632e1a7d4d1461012057610099565b3661009957610097610211565b005b600080fd5b6100b860048036038101906100b3919061085e565b610313565b005b3480156100c657600080fd5b506100e160048036038101906100dc91906108c9565b610405565b6040516100ee919061090f565b60405180910390f35b34801561010357600080fd5b5061011e60048036038101906101199190610956565b61041d565b005b34801561012c57600080fd5b5061014760048036038101906101429190610996565b6105b4565b005b34801561015557600080fd5b5061015e610780565b60405161016b919061090f565b60405180910390f35b34801561018057600080fd5b50610189610788565b604051610196919061090f565b60405180910390f35b3480156101ab57600080fd5b506101b461078e565b6040516101c191906109d2565b60405180910390f35b6101d2610211565b005b3480156101e057600080fd5b506101fb60048036038101906101f691906108c9565b6107b2565b604051610208919061090f565b60405180910390f35b60003411610254576040517f08c379a000000000000000000000000000000000000000000000000000000000815260040161024b90610a4a565b60405180910390fd5b34600160003373ffffffffffffffffffffffffffffffffffffffff1673ffffffffffffffffffffffffffffffffffffffff16815260200190815260200160002060008282546102a39190610a99565b9250508190555034600260008282546102bc9190610a99565b925050819055503373ffffffffffffffffffffffffffffffffffffffff167fe1fffcc4923d04b559f4d29a8bfc6cda04eb5b0d3c460751c2402c5c5cc9109c34604051610309919061090f565b60405180910390a2565b60003411610356576040517f08c379a000000000000000000000000000000000000000000000000000000000815260040161034d90610a4a565b60405180910390fd5b8073ffffffffffffffffffffffffffffffffffffffff166108fc349081150290604051600060405180830381858888f1935050505015801561039c573d6000803e3d6000fd5b508073ffffffffffffffffffffffffffffffffffffffff163373ffffffffffffffffffffffffffffffffffffffff167fddf252ad1be2c89b69c2b068fc378daa952ba7f163c4a11628f55a4df523b3ef346040516103fa919061090f565b60405180910390a350565b60016020528060005260406000206000915090505481565b80600160003373ffffffffffffffffffffffffffffffffffffffff1673ffffffffffffffffffffffffffffffffffffffff16815260200190815260200160002054101561049f576040517f08c379a000000000000000000000000000000000000000000000000000000000815260040161049690610b19565b60405180910390fd5b80600160003373ffffffffffffffffffffffffffffffffffffffff1673ffffffffffffffffffffffffffffffffffffffff16815260200190815260200160002060008282546104ee9190610b39565b9250508190555080600160008473ffffffffffffffffffffffffffffffffffffffff1673ffffffffffffffffffffffffffffffffffffffff16815260200190815260200160002060008282546105449190610a99565b925050819055508173ffffffffffffffffffffffffffffffffffffffff163373ffffffffffffffffffffffffffffffffffffffff167fddf252ad1be2c89b69c2b068fc378daa952ba7f163c4a11628f55a4df523b3ef836040516105a8919061090f565b60405180910390a35050565b80600160003373ffffffffffffffffffffffffffffffffffffffff1673ffffffffffffffffffffffffffffffffffffffff168152602001908152602001600020541015610636576040517f08c379a000000000000000000000000000000000000000000000000000000000815260040161062d90610b19565b60405180910390fd5b80471015610679576040517f08c379a000000000000000000000000000000000000000000000000000000000815260040161067090610bb9565b60405180910390fd5b80600160003373ffffffffffffffffffffffffffffffffffffffff1673ffffffffffffffffffffffffffffffffffffffff16815260200190815260200160002060008282546106c89190610b39565b9250508190555080600260008282546106e19190610b39565b925050819055503373ffffffffffffffffffffffffffffffffffffffff166108fc829081150290604051600060405180830381858888f1935050505015801561072e573d6000803e3d6000fd5b503373ffffffffffffffffffffffffffffffffffffffff167f884edad9ce6fa2440d8a54cc123490eb96d2768479d49ff9c7366125a942436482604051610775919061090f565b60405180910390a250565b600047905090565b60025481565b60008054906101000a900473ffffffffffffffffffffffffffffffffffffffff1681565b6000600160008373ffffffffffffffffffffffffffffffffffffffff1673ffffffffffffffffffffffffffffffffffffffff168152602001908152602001600020549050919050565b600080fd5b600073ffffffffffffffffffffffffffffffffffffffff82169050919050565b600061082b82610800565b9050919050565b61083b81610820565b811461084657600080fd5b50565b60008135905061085881610832565b92915050565b600060208284031215610874576108736107fb565b5b600061088284828501610849565b91505092915050565b600061089682610800565b9050919050565b6108a68161088b565b81146108b157600080fd5b50565b6000813590506108c38161089d565b92915050565b6000602082840312156108df576108de6107fb565b5b60006108ed848285016108b4565b91505092915050565b6000819050919050565b610909816108f6565b82525050565b60006020820190506109246000830184610900565b92915050565b610933816108f6565b811461093e57600080fd5b50565b6000813590506109508161092a565b92915050565b6000806040838503121561096d5761096c6107fb565b5b600061097b85828601610849565b925050602061098c85828601610941565b9150509250929050565b6000602082840312156109ac576109ab6107fb565b5b60006109ba84828501610941565b91505092915050565b6109cc8161088b565b82525050565b60006020820190506109e760008301846109c3565b92915050565b600082825260208201905092915050565b7f416d6f756e74206d7573742062652067726561746572207468616e2030000000600082015250565b6000610a34601d836109ed565b9150610a3f826109fe565b602082019050919050565b60006020820190508181036000830152610a6381610a27565b9050919050565b7f4e487b7100000000000000000000000000000000000000000000000000000000600052601160045260246000fd5b6000610aa4826108f6565b9150610aaf836108f6565b9250828201905080821115610ac757610ac6610a6a565b5b92915050565b7f496e73756666696369656e742062616c616e6365000000000000000000000000600082015250565b6000610b036014836109ed565b9150610b0e82610acd565b602082019050919050565b60006020820190508181036000830152610b3281610af6565b9050919050565b6000610b44826108f6565b9150610b4f836108f6565b9250828203905081811115610b6757610b66610a6a565b5b92915050565b7f436f6e747261637420696e73756666696369656e742062616c616e6365000000600082015250565b6000610ba3601d836109ed565b9150610bae82610b6d565b602082019050919050565b60006020820190508181036000830152610bd281610b96565b905091905056fea2646970667358221220f92b3e915c91a2f31cf61947414168ecedc322468be13530991b13bc61a2810864736f6c63430008130033",
  "linkReferences": {},
  "deployedLinkReferences": {}
}