{
  "_format": "hh-sol-artifact-1",
  "contractName": "Voting",
  "sourceName": "contracts/Voting.sol",
  "abi": [
    {
      "anonymous": false,
      "inputs": [
        {
          "indexed": true,
          "internalType": "address",
          "name": "voter",
          "type": "address"
        },
        {
          "indexed": false,
          "internalType": "string",
          "name": "candidate",
          "type": "string"
        },
        {
          "indexed": false,
          "internalType": "uint256",
          "name": "newVoteCount",
          "type": "uint256"
        }
      ],
      "name": "Voted",
      "type": "event"
    },
    {
      "anonymous": false,
      "inputs": [
        {
          "indexed": true,
          "internalType": "address",
          "name": "resetBy",
          "type": "address"
        }
      ],
      "name": "VotesReset",
      "type": "event"
    },
    {
      "inputs": [
        {
          "internalType": "string",
          "name": "",
          "type": "string"
        }
      ],
      "name": "candidateVotes",
      "outputs": [
        {
          "internalType": "uint256",
          "name": "",
          "type": "uint256"
        }
      ],
      "stateMutability": "view",
      "type": "function"
    },
    {
      "inputs": [],
      "name": "getAllCandidates",
      "outputs": [
        {
          "internalType": "string[]",
          "name": "",
          "type": "string[]"
        }
      ],
      "stateMutability": "view",
      "type": "function"
    },
    {
      "inputs": [],
      "name": "getCandidateCount",
      "outputs": [
        {
          "internalType": "uint256",
          "name": "",
          "type": "uint256"
        }
      ],
      "stateMutability": "view",
      "type": "function"
    },
    {
      "inputs": [
        {
          "internalType": "string",
          "name": "candidate",
          "type": "string"
        }
      ],
      "name": "getVotes",
      "outputs": [
        {
          "internalType": "uint256",
          "name": "",
          "type": "uint256"
        }
      ],
      "stateMutability": "view",
      "type": "function"
    },
    {
      "inputs": [],
      "name": "resetVotes",
      "outputs": [],
      "stateMutability": "nonpayable",
      "type": "function"
    },
    {
      "inputs": [
        {
          "internalType": "string",
          "name": "candidate",
          "type": "string"
        }
      ],
      "name": "vote",
      "outputs": [],
      "stateMutability": "nonpayable",
      "type": "function"
    }
  ],
  "bytecode": "0x608060405234801561001057600080fd5b50610d17806100206000396000f3fe608060405234801561001057600080fd5b50600436106100615760003560e01c8062514d7a146100665780632e6997fe1461009657806330a56347146100b4578063805265e5146100d2578063b9830ff114610102578063fc36e15b1461010c575b600080fd5b610080600480360381019061007b91906105aa565b610128565b60405161008d919061060c565b60405180910390f35b61009e610156565b6040516100ab9190610768565b60405180910390f35b6100bc61022f565b6040516100c9919061060c565b60405180910390f35b6100ec60048036038101906100e791906105aa565b61023c565b6040516100f9919061060c565b60405180910390f35b61010a610263565b005b610126600480360381019061012191906105aa565b61030c565b005b6000818051602081018201805184825260208301602085012081835280955050505050506000915090505481565b60606001805480602002602001604051908101604052809291908181526020016000905b82821015610226578382906000526020600020018054610199906107b9565b80601f01602080910402602001604051908101604052809291908181526020018280546101c5906107b9565b80156102125780601f106101e757610100808354040283529160200191610212565b820191906000526020600020905b8154815290600101906020018083116101f557829003601f168201915b50505050508152602001906001019061017a565b50505050905090565b6000600180549050905090565b6000808260405161024d9190610826565b9081526020016040518091039020549050919050565b60005b6001805490508110156102c6576000806001838154811061028a5761028961083d565b5b906000526020600020016040516102a19190610904565b90815260200160405180910390208190555080806102be9061094a565b915050610266565b503373ffffffffffffffffffffffffffffffffffffffff167f52377ea4d8812f0bb534fc079993e288b4ea73d011a2a368502255052a6b773060405160405180910390a2565b6000815111610350576040517f08c379a0000000000000000000000000000000000000000000000000000000008152600401610347906109ef565b60405180910390fd5b600080826040516103619190610826565b908152602001604051809103902054036103ab576001819080600181540180825580915050600190039060005260206000200160009091909190915090816103a99190610ba6565b505b6000816040516103bb9190610826565b908152602001604051809103902060008154809291906103da9061094a565b91905055503373ffffffffffffffffffffffffffffffffffffffff167f35b4034b2bbe10bb07b21969c986794a6276a531bb155886a9f883bb5c9dc8e8826000846040516104289190610826565b908152602001604051809103902054604051610445929190610cb1565b60405180910390a250565b6000604051905090565b600080fd5b600080fd5b600080fd5b600080fd5b6000601f19601f8301169050919050565b7f4e487b7100000000000000000000000000000000000000000000000000000000600052604160045260246000fd5b6104b78261046e565b810181811067ffffffffffffffff821117156104d6576104d561047f565b5b80604052505050565b60006104e9610450565b90506104f582826104ae565b919050565b600067ffffffffffffffff8211156105155761051461047f565b5b61051e8261046e565b9050602081019050919050565b82818337600083830152505050565b600061054d610548846104fa565b6104df565b90508281526020810184848401111561056957610568610469565b5b61057484828561052b565b509392505050565b600082601f83011261059157610590610464565b5b81356105a184826020860161053a565b91505092915050565b6000602082840312156105c0576105bf61045a565b5b600082013567ffffffffffffffff8111156105de576105dd61045f565b5b6105ea8482850161057c565b91505092915050565b6000819050919050565b610606816105f3565b82525050565b600060208201905061062160008301846105fd565b92915050565b600081519050919050565b600082825260208201905092915050565b6000819050602082019050919050565b600081519050919050565b600082825260208201905092915050565b60005b8381101561068d578082015181840152602081019050610672565b60008484015250505050565b60006106a482610653565b6106ae818561065e565b93506106be81856020860161066f565b6106c78161046e565b840191505092915050565b60006106de8383610699565b905092915050565b6000602082019050919050565b60006106fe82610627565b6107088185610632565b93508360208202850161071a85610643565b8060005b85811015610756578484038952815161073785826106d2565b9450610742836106e6565b925060208a0199505060018101905061071e565b50829750879550505050505092915050565b6000602082019050818103600083015261078281846106f3565b905092915050565b7f4e487b7100000000000000000000000000000000000000000000000000000000600052602260045260246000fd5b600060028204905060018216806107d157607f821691505b6020821081036107e4576107e361078a565b5b50919050565b600081905092915050565b600061080082610653565b61080a81856107ea565b935061081a81856020860161066f565b80840191505092915050565b600061083282846107f5565b915081905092915050565b7f4e487b7100000000000000000000000000000000000000000000000000000000600052603260045260246000fd5b60008190508160005260206000209050919050565b6000815461088e816107b9565b61089881866107ea565b945060018216600081146108b357600181146108c8576108fb565b60ff19831686528115158202860193506108fb565b6108d18561086c565b60005b838110156108f3578154818901526001820191506020810190506108d4565b838801955050505b50505092915050565b60006109108284610881565b915081905092915050565b7f4e487b7100000000000000000000000000000000000000000000000000000000600052601160045260246000fd5b6000610955826105f3565b91507fffffffffffffffffffffffffffffffffffffffffffffffffffffffffffffffff82036109875761098661091b565b5b600182019050919050565b600082825260208201905092915050565b7f43616e646964617465206e616d652063616e6e6f7420626520656d7074790000600082015250565b60006109d9601e83610992565b91506109e4826109a3565b602082019050919050565b60006020820190508181036000830152610a08816109cc565b9050919050565b60006020601f8301049050919050565b600082821b905092915050565b600060088302610a5c7fffffffffffffffffffffffffffffffffffffffffffffffffffffffffffffffff82610a1f565b610a668683610a1f565b95508019841693508086168417925050509392505050565b6000819050919050565b6000610aa3610a9e610a99846105f3565b610a7e565b6105f3565b9050919050565b6000819050919050565b610abd83610a88565b610ad1610ac982610aaa565b848454610a2c565b825550505050565b600090565b610ae6610ad9565b610af1818484610ab4565b505050565b5b81811015610b1557610b0a600082610ade565b600181019050610af7565b5050565b601f821115610b5a57610b2b8161086c565b610b3484610a0f565b81016020851015610b43578190505b610b57610b4f85610a0f565b830182610af6565b50505b505050565b600082821c905092915050565b6000610b7d60001984600802610b5f565b1980831691505092915050565b6000610b968383610b6c565b9150826002028217905092915050565b610baf82610653565b67ffffffffffffffff811115610bc857610bc761047f565b5b610bd282546107b9565b610bdd828285610b19565b600060209050601f831160018114610c105760008415610bfe578287015190505b610c088582610b8a565b865550610c70565b601f198416610c1e8661086c565b60005b82811015610c4657848901518255600182019150602085019450602081019050610c21565b86831015610c635784890151610c5f601f891682610b6c565b8355505b6001600288020188555050505b505050505050565b6000610c8382610653565b610c8d8185610992565b9350610c9d81856020860161066f565b610ca68161046e565b840191505092915050565b60006040820190508181036000830152610ccb8185610c78565b9050610cda60208301846105fd565b939250505056fea2646970667358221220c3a7f3db853fda00a2e72087ae42b1b923ce2d9303026a9ea8973de53177a95d64736f6c63430008130033",
  "linkReferences": {},
  "deployedLinkReferences": {}
}