{
  "_format": "hh-sol-artifact-1",
  "contractName": "RomanToIntCase",
  "sourceName": "contracts/RomanToInt.sol",
  "abi": [
    {
      "inputs": [],
      "stateMutability": "nonpayable",
      "type": "constructor"
    },
    {
      "inputs": [
        {
          "internalType": "string",
          "name": "s",
          "type": "string"
        }
      ],
      "name": "RomanToInt",
      "outputs": [
        {
          "internalType": "uint256",
          "name": "",
          "type": "uint256"
        }
      ],
      "stateMutability": "pure",
      "type": "function"
    },
    {
      "inputs": [
        {
          "internalType": "string[]",
          "name": "romans",
          "type": "string[]"
        }
      ],
      "name": "batchRomanToInt",
      "outputs": [
        {
          "internalType": "uint256[]",
          "name": "",
          "type": "uint256[]"
        }
      ],
      "stateMutability": "pure",
      "type": "function"
    },
    {
      "inputs": [],
      "name": "owner",
      "outputs": [
        {
          "internalType": "address",
          "name": "",
          "type": "address"
        }
      ],
      "stateMutability": "view",
      "type": "function"
    }
  ],
  "bytecode": "0x608060405234801561001057600080fd5b50336000806101000a81548173ffffffffffffffffffffffffffffffffffffffff021916908373ffffffffffffffffffffffffffffffffffffffff160217905550610c87806100606000396000f3fe608060405234801561001057600080fd5b50600436106100415760003560e01c80638da5cb5b14610046578063ab530f9b14610064578063d866449f14610094575b600080fd5b61004e6100c4565b60405161005b91906105ed565b60405180910390f35b61007e60048036038101906100799190610848565b6100e8565b60405161008b9190610959565b60405180910390f35b6100ae60048036038101906100a9919061097b565b6101a3565b6040516100bb91906109d3565b60405180910390f35b60008054906101000a900473ffffffffffffffffffffffffffffffffffffffff1681565b60606000825167ffffffffffffffff81111561010757610106610632565b5b6040519080825280602002602001820160405280156101355781602001602082028036833780820191505090505b50905060005b83518110156101995761016784828151811061015a576101596109ee565b5b60200260200101516101a3565b82828151811061017a576101796109ee565b5b602002602001018181525050808061019190610a4c565b91505061013b565b5080915050919050565b600080829050600081519050600081116101f2576040517f08c379a00000000000000000000000000000000000000000000000000000000081526004016101e990610af1565b60405180910390fd5b6000805b828110156102ce576000610226858381518110610216576102156109ee565b5b602001015160f81c60f81b61032a565b90506001846102359190610b11565b8210156102ab5760006102708660018561024f9190610b45565b815181106102605761025f6109ee565b5b602001015160f81c60f81b61032a565b9050808210156102a95781816102869190610b11565b846102919190610b45565b93506002836102a09190610b45565b925050506101f6565b505b80836102b79190610b45565b92506001826102c69190610b45565b9150506101f6565b6000821180156102df5750610fa082105b61031e576040517f08c379a000000000000000000000000000000000000000000000000000000000815260040161031590610bc5565b60405180910390fd5b81945050505050919050565b60007f4900000000000000000000000000000000000000000000000000000000000000827effffffffffffffffffffffffffffffffffffffffffffffffffffffffffffff19160361037e57600190506105a7565b7f5600000000000000000000000000000000000000000000000000000000000000827effffffffffffffffffffffffffffffffffffffffffffffffffffffffffffff1916036103d057600590506105a7565b7f5800000000000000000000000000000000000000000000000000000000000000827effffffffffffffffffffffffffffffffffffffffffffffffffffffffffffff19160361042257600a90506105a7565b7f4c00000000000000000000000000000000000000000000000000000000000000827effffffffffffffffffffffffffffffffffffffffffffffffffffffffffffff19160361047457603290506105a7565b7f4300000000000000000000000000000000000000000000000000000000000000827effffffffffffffffffffffffffffffffffffffffffffffffffffffffffffff1916036104c657606490506105a7565b7f4400000000000000000000000000000000000000000000000000000000000000827effffffffffffffffffffffffffffffffffffffffffffffffffffffffffffff191603610519576101f490506105a7565b7f4d00000000000000000000000000000000000000000000000000000000000000827effffffffffffffffffffffffffffffffffffffffffffffffffffffffffffff19160361056c576103e890506105a7565b6040517f08c379a000000000000000000000000000000000000000000000000000000000815260040161059e90610c31565b60405180910390fd5b919050565b600073ffffffffffffffffffffffffffffffffffffffff82169050919050565b60006105d7826105ac565b9050919050565b6105e7816105cc565b82525050565b600060208201905061060260008301846105de565b92915050565b6000604051905090565b600080fd5b600080fd5b600080fd5b6000601f19601f8301169050919050565b7f4e487b7100000000000000000000000000000000000000000000000000000000600052604160045260246000fd5b61066a82610621565b810181811067ffffffffffffffff8211171561068957610688610632565b5b80604052505050565b600061069c610608565b90506106a88282610661565b919050565b600067ffffffffffffffff8211156106c8576106c7610632565b5b602082029050602081019050919050565b600080fd5b600080fd5b600067ffffffffffffffff8211156106fe576106fd610632565b5b61070782610621565b9050602081019050919050565b82818337600083830152505050565b6000610736610731846106e3565b610692565b905082815260208101848484011115610752576107516106de565b5b61075d848285610714565b509392505050565b600082601f83011261077a5761077961061c565b5b813561078a848260208601610723565b91505092915050565b60006107a66107a1846106ad565b610692565b905080838252602082019050602084028301858111156107c9576107c86106d9565b5b835b8181101561081057803567ffffffffffffffff8111156107ee576107ed61061c565b5b8086016107fb8982610765565b855260208501945050506020810190506107cb565b5050509392505050565b600082601f83011261082f5761082e61061c565b5b813561083f848260208601610793565b91505092915050565b60006020828403121561085e5761085d610612565b5b600082013567ffffffffffffffff81111561087c5761087b610617565b5b6108888482850161081a565b91505092915050565b600081519050919050565b600082825260208201905092915050565b6000819050602082019050919050565b6000819050919050565b6108d0816108bd565b82525050565b60006108e283836108c7565b60208301905092915050565b6000602082019050919050565b600061090682610891565b610910818561089c565b935061091b836108ad565b8060005b8381101561094c57815161093388826108d6565b975061093e836108ee565b92505060018101905061091f565b5085935050505092915050565b6000602082019050818103600083015261097381846108fb565b905092915050565b60006020828403121561099157610990610612565b5b600082013567ffffffffffffffff8111156109af576109ae610617565b5b6109bb84828501610765565b91505092915050565b6109cd816108bd565b82525050565b60006020820190506109e860008301846109c4565b92915050565b7f4e487b7100000000000000000000000000000000000000000000000000000000600052603260045260246000fd5b7f4e487b7100000000000000000000000000000000000000000000000000000000600052601160045260246000fd5b6000610a57826108bd565b91507fffffffffffffffffffffffffffffffffffffffffffffffffffffffffffffffff8203610a8957610a88610a1d565b5b600182019050919050565b600082825260208201905092915050565b7f456d70747920737472696e670000000000000000000000000000000000000000600082015250565b6000610adb600c83610a94565b9150610ae682610aa5565b602082019050919050565b60006020820190508181036000830152610b0a81610ace565b9050919050565b6000610b1c826108bd565b9150610b27836108bd565b9250828203905081811115610b3f57610b3e610a1d565b5b92915050565b6000610b50826108bd565b9150610b5b836108bd565b9250828201905080821115610b7357610b72610a1d565b5b92915050565b7f496e76616c696420526f6d616e206e756d6572616c0000000000000000000000600082015250565b6000610baf601583610a94565b9150610bba82610b79565b602082019050919050565b60006020820190508181036000830152610bde81610ba2565b9050919050565b7f496e76616c696420526f6d616e20636861726163746572000000000000000000600082015250565b6000610c1b601783610a94565b9150610c2682610be5565b602082019050919050565b60006020820190508181036000830152610c4a81610c0e565b905091905056fea264697066735822122004060d4ab79d86b12d0607a0f4da6443fc1971e4e183f43606514a7ea854686764736f6c63430008130033",
  "linkReferences": {},
  "deployedLinkReferences": {}
}