{
  "_format": "hh-sol-artifact-1",
  "contractName": "StringTest",
  "sourceName": "contracts/StringTest.sol",
  "abi": [
    {
      "inputs": [
        {
          "internalType": "string",
          "name": "_str",
          "type": "string"
        }
      ],
      "name": "reverseString",
      "outputs": [
        {
          "internalType": "string",
          "name": "",
          "type": "string"
        }
      ],
      "stateMutability": "pure",
      "type": "function"
    }
  ],
  "bytecode": "0x608060405234801561001057600080fd5b506104d0806100206000396000f3fe608060405234801561001057600080fd5b506004361061002b5760003560e01c80635729c21114610030575b600080fd5b61004a600480360381019061004591906102cc565b610060565b6040516100579190610394565b60405180910390f35b606060008290506000815190506001811161007f57839250505061016d565b60008167ffffffffffffffff81111561009b5761009a6101a1565b5b6040519080825280601f01601f1916602001820160405280156100cd5781602001600182028036833780820191505090505b50905060005b828110156101655783816001856100ea91906103ef565b6100f491906103ef565b8151811061010557610104610423565b5b602001015160f81c60f81b82828151811061012357610122610423565b5b60200101907effffffffffffffffffffffffffffffffffffffffffffffffffffffffffffff1916908160001a905350808061015d90610452565b9150506100d3565b508093505050505b919050565b6000604051905090565b600080fd5b600080fd5b600080fd5b600080fd5b6000601f19601f8301169050919050565b7f4e487b7100000000000000000000000000000000000000000000000000000000600052604160045260246000fd5b6101d982610190565b810181811067ffffffffffffffff821117156101f8576101f76101a1565b5b80604052505050565b600061020b610172565b905061021782826101d0565b919050565b600067ffffffffffffffff821115610237576102366101a1565b5b61024082610190565b9050602081019050919050565b82818337600083830152505050565b600061026f61026a8461021c565b610201565b90508281526020810184848401111561028b5761028a61018b565b5b61029684828561024d565b509392505050565b600082601f8301126102b3576102b2610186565b5b81356102c384826020860161025c565b91505092915050565b6000602082840312156102e2576102e161017c565b5b600082013567ffffffffffffffff811115610300576102ff610181565b5b61030c8482850161029e565b91505092915050565b600081519050919050565b600082825260208201905092915050565b60005b8381101561034f578082015181840152602081019050610334565b60008484015250505050565b600061036682610315565b6103708185610320565b9350610380818560208601610331565b61038981610190565b840191505092915050565b600060208201905081810360008301526103ae818461035b565b905092915050565b6000819050919050565b7f4e487b7100000000000000000000000000000000000000000000000000000000600052601160045260246000fd5b60006103fa826103b6565b9150610405836103b6565b925082820390508181111561041d5761041c6103c0565b5b92915050565b7f4e487b7100000000000000000000000000000000000000000000000000000000600052603260045260246000fd5b600061045d826103b6565b91507fffffffffffffffffffffffffffffffffffffffffffffffffffffffffffffffff820361048f5761048e6103c0565b5b60018201905091905056fea2646970667358221220ceeaddbcbe3d017e0888cfd4226b0b9bb2f7c372f520dc4d52d8046c1432346d64736f6c63430008130033",
  "linkReferences": {},
  "deployedLinkReferences": {}
}