{
  "_format": "hh-sol-artifact-1",
  "contractName": "SimpleERC20",
  "sourceName": "contracts/SimpleERC20.sol",
  "abi": [
    {
      "inputs": [
        {
          "internalType": "string",
          "name": "_name",
          "type": "string"
        },
        {
          "internalType": "string",
          "name": "_symbol",
          "type": "string"
        },
        {
          "internalType": "uint8",
          "name": "_decimals",
          "type": "uint8"
        },
        {
          "internalType": "uint256",
          "name": "_initialSupply",
          "type": "uint256"
        }
      ],
      "stateMutability": "nonpayable",
      "type": "constructor"
    },
    {
      "anonymous": false,
      "inputs": [
        {
          "indexed": true,
          "internalType": "address",
          "name": "owner",
          "type": "address"
        },
        {
          "indexed": true,
          "internalType": "address",
          "name": "spender",
          "type": "address"
        },
        {
          "indexed": false,
          "internalType": "uint256",
          "name": "value",
          "type": "uint256"
        }
      ],
      "name": "Approval",
      "type": "event"
    },
    {
      "anonymous": false,
      "inputs": [
        {
          "indexed": true,
          "internalType": "address",
          "name": "to",
          "type": "address"
        },
        {
          "indexed": false,
          "internalType": "uint256",
          "name": "value",
          "type": "uint256"
        }
      ],
      "name": "Mint",
      "type": "event"
    },
    {
      "anonymous": false,
      "inputs": [
        {
          "indexed": true,
          "internalType": "address",
          "name": "from",
          "type": "address"
        },
        {
          "indexed": true,
          "internalType": "address",
          "name": "to",
          "type": "address"
        },
        {
          "indexed": false,
          "internalType": "uint256",
          "name": "value",
          "type": "uint256"
        }
      ],
      "name": "Transfer",
      "type": "event"
    },
    {
      "inputs": [
        {
          "internalType": "address",
          "name": "",
          "type": "address"
        },
        {
          "internalType": "address",
          "name": "",
          "type": "address"
        }
      ],
      "name": "allowance",
      "outputs": [
        {
          "internalType": "uint256",
          "name": "",
          "type": "uint256"
        }
      ],
      "stateMutability": "view",
      "type": "function"
    },
    {
      "inputs": [
        {
          "internalType": "address",
          "name": "spender",
          "type": "address"
        },
        {
          "internalType": "uint256",
          "name": "value",
          "type": "uint256"
        }
      ],
      "name": "approve",
      "outputs": [
        {
          "internalType": "bool",
          "name": "",
          "type": "bool"
        }
      ],
      "stateMutability": "nonpayable",
      "type": "function"
    },
    {
      "inputs": [
        {
          "internalType": "address",
          "name": "",
          "type": "address"
        }
      ],
      "name": "balanceOf",
      "outputs": [
        {
          "internalType": "uint256",
          "name": "",
          "type": "uint256"
        }
      ],
      "stateMutability": "view",
      "type": "function"
    },
    {
      "inputs": [
        {
          "internalType": "address[]",
          "name": "recipients",
          "type": "address[]"
        },
        {
          "internalType": "uint256[]",
          "name": "values",
          "type": "uint256[]"
        }
      ],
      "name": "batchTransfer",
      "outputs": [
        {
          "internalType": "bool",
          "name": "",
          "type": "bool"
        }
      ],
      "stateMutability": "nonpayable",
      "type": "function"
    },
    {
      "inputs": [],
      "name": "decimals",
      "outputs": [
        {
          "internalType": "uint8",
          "name": "",
          "type": "uint8"
        }
      ],
      "stateMutability": "view",
      "type": "function"
    },
    {
      "inputs": [
        {
          "internalType": "address",
          "name": "_owner",
          "type": "address"
        },
        {
          "internalType": "address",
          "name": "spender",
          "type": "address"
        }
      ],
      "name": "getAllowance",
      "outputs": [
        {
          "internalType": "uint256",
          "name": "",
          "type": "uint256"
        }
      ],
      "stateMutability": "view",
      "type": "function"
    },
    {
      "inputs": [
        {
          "internalType": "address",
          "name": "account",
          "type": "address"
        }
      ],
      "name": "getBalance",
      "outputs": [
        {
          "internalType": "uint256",
          "name": "",
          "type": "uint256"
        }
      ],
      "stateMutability": "view",
      "type": "function"
    },
    {
      "inputs": [
        {
          "internalType": "address",
          "name": "to",
          "type": "address"
        },
        {
          "internalType": "uint256",
          "name": "value",
          "type": "uint256"
        }
      ],
      "name": "mint",
      "outputs": [
        {
          "internalType": "bool",
          "name": "",
          "type": "bool"
        }
      ],
      "stateMutability": "nonpayable",
      "type": "function"
    },
    {
      "inputs": [],
      "name": "name",
      "outputs": [
        {
          "internalType": "string",
          "name": "",
          "type": "string"
        }
      ],
      "stateMutability": "view",
      "type": "function"
    },
    {
      "inputs": [],
      "name": "owner",
      "outputs": [
        {
          "internalType": "address",
          "name": "",
          "type": "address"
        }
      ],
      "stateMutability": "view",
      "type": "function"
    },
    {
      "inputs": [],
      "name": "symbol",
      "outputs": [
        {
          "internalType": "string",
          "name": "",
          "type": "string"
        }
      ],
      "stateMutability": "view",
      "type": "function"
    },
    {
      "inputs": [],
      "name": "totalSupply",
      "outputs": [
        {
          "internalType": "uint256",
          "name": "",
          "type": "uint256"
        }
      ],
      "stateMutability": "view",
      "type": "function"
    },
    {
      "inputs": [
        {
          "internalType": "address",
          "name": "to",
          "type": "address"
        },
        {
          "internalType": "uint256",
          "name": "value",
          "type": "uint256"
        }
      ],
      "name": "transfer",
      "outputs": [
        {
          "internalType": "bool",
          "name": "",
          "type": "bool"
        }
      ],
      "stateMutability": "nonpayable",
      "type": "function"
    },
    {
      "inputs": [
        {
          "internalType": "address",
          "name": "from",
          "type": "address"
        },
        {
          "internalType": "address",
          "name": "to",
          "type": "address"
        },
        {
          "internalType": "uint256",
          "name": "value",
          "type": "uint256"
        }
      ],
      "name": "transferFrom",
      "outputs": [
        {
          "internalType": "bool",
          "name": "",
          "type": "bool"
        }
      ],
      "stateMutability": "nonpayable",
      "type": "function"
    },
    {
      "inputs": [
        {
          "internalType": "address",
          "name": "newOwner",
          "type": "address"
        }
      ],
      "name": "transferOwnership",
      "outputs": [],
      "stateMutability": "nonpayable",
      "type": "function"
    }
  ],
  "bytecode": "0x60806040523480156200001157600080fd5b50604051620015793803806200157983398101604081905262000034916200029b565b6000620000428582620003b5565b506001620000518482620003b5565b506002805460ff841660ff199091168117909155600480546001600160a01b031916339081179091556200009e916200008c90600a62000596565b620000989084620005ae565b620000a8565b50505050620005de565b6001600160a01b038216620001035760405162461bcd60e51b815260206004820152601460248201527f4d696e7420746f207a65726f2061646472657373000000000000000000000000604482015260640160405180910390fd5b6001600160a01b038216600090815260056020526040812080548392906200012d908490620005c8565b925050819055508060036000828254620001489190620005c8565b90915550506040518181526001600160a01b038316906000907fddf252ad1be2c89b69c2b068fc378daa952ba7f163c4a11628f55a4df523b3ef9060200160405180910390a3816001600160a01b03167f0f6798a560793a54c3bcfe86a93cde1e73087d944c0ea20544137d412139688582604051620001ca91815260200190565b60405180910390a25050565b634e487b7160e01b600052604160045260246000fd5b600082601f830112620001fe57600080fd5b81516001600160401b03808211156200021b576200021b620001d6565b604051601f8301601f19908116603f01168101908282118183101715620002465762000246620001d6565b816040528381526020925086838588010111156200026357600080fd5b600091505b8382101562000287578582018301518183018401529082019062000268565b600093810190920192909252949350505050565b60008060008060808587031215620002b257600080fd5b84516001600160401b0380821115620002ca57600080fd5b620002d888838901620001ec565b95506020870151915080821115620002ef57600080fd5b50620002fe87828801620001ec565b935050604085015160ff811681146200031657600080fd5b6060959095015193969295505050565b600181811c908216806200033b57607f821691505b6020821081036200035c57634e487b7160e01b600052602260045260246000fd5b50919050565b601f821115620003b057600081815260208120601f850160051c810160208610156200038b5750805b601f850160051c820191505b81811015620003ac5782815560010162000397565b5050505b505050565b81516001600160401b03811115620003d157620003d1620001d6565b620003e981620003e2845462000326565b8462000362565b602080601f831160018114620004215760008415620004085750858301515b600019600386901b1c1916600185901b178555620003ac565b600085815260208120601f198616915b82811015620004525788860151825594840194600190910190840162000431565b5085821015620004715787850151600019600388901b60f8161c191681555b5050505050600190811b01905550565b634e487b7160e01b600052601160045260246000fd5b600181815b80851115620004d8578160001904821115620004bc57620004bc62000481565b80851615620004ca57918102915b93841c93908002906200049c565b509250929050565b600082620004f15750600162000590565b81620005005750600062000590565b8160018114620005195760028114620005245762000544565b600191505062000590565b60ff84111562000538576200053862000481565b50506001821b62000590565b5060208310610133831016604e8410600b841016171562000569575081810a62000590565b62000575838362000497565b80600019048211156200058c576200058c62000481565b0290505b92915050565b6000620005a760ff841683620004e0565b9392505050565b808202811582820484141762000590576200059062000481565b8082018082111562000590576200059062000481565b610f8b80620005ee6000396000f3fe608060405234801561001057600080fd5b50600436106100f55760003560e01c806370a0823111610097578063a9059cbb11610066578063a9059cbb14610236578063dd62ed3e14610249578063f2fde38b14610274578063f8b2cb4f1461028957600080fd5b806370a08231146101d057806388d695b2146101f05780638da5cb5b1461020357806395d89b411461022e57600080fd5b806318160ddd116100d357806318160ddd1461018257806323b872dd1461018b578063313ce5671461019e57806340c10f19146101bd57600080fd5b806306fdde03146100fa578063095ea7b3146101185780630af4187d1461013b575b600080fd5b6101026102b2565b60405161010f9190610b2f565b60405180910390f35b61012b610126366004610b99565b610340565b604051901515815260200161010f565b610174610149366004610bc3565b6001600160a01b03918216600090815260066020908152604080832093909416825291909152205490565b60405190815260200161010f565b61017460035481565b61012b610199366004610bf6565b610403565b6002546101ab9060ff1681565b60405160ff909116815260200161010f565b61012b6101cb366004610b99565b6105fe565b6101746101de366004610c32565b60056020526000908152604090205481565b61012b6101fe366004610d2a565b61063e565b600454610216906001600160a01b031681565b6040516001600160a01b03909116815260200161010f565b6101026108a4565b61012b610244366004610b99565b6108b1565b610174610257366004610bc3565b600660209081526000928352604080842090915290825290205481565b610287610282366004610c32565b610984565b005b610174610297366004610c32565b6001600160a01b031660009081526005602052604090205490565b600080546102bf90610dea565b80601f01602080910402602001604051908101604052809291908181526020018280546102eb90610dea565b80156103385780601f1061030d57610100808354040283529160200191610338565b820191906000526020600020905b81548152906001019060200180831161031b57829003601f168201915b505050505081565b60006001600160a01b03831661039d5760405162461bcd60e51b815260206004820152601760248201527f417070726f766520746f207a65726f206164647265737300000000000000000060448201526064015b60405180910390fd5b3360008181526006602090815260408083206001600160a01b03881680855290835292819020869055518581529192917f8c5be1e5ebec7d5bd14f71427d1e84f3dd0314c0f7b2291e5b200ac8c7c3b92591015b60405180910390a35060015b92915050565b60006001600160a01b03841661045b5760405162461bcd60e51b815260206004820152601a60248201527f5472616e736665722066726f6d207a65726f20616464726573730000000000006044820152606401610394565b6001600160a01b0383166104815760405162461bcd60e51b815260040161039490610e24565b6001600160a01b0384166000908152600560205260409020548211156104b95760405162461bcd60e51b815260040161039490610e5b565b6001600160a01b03841660009081526006602090815260408083203384529091529020548211156105255760405162461bcd60e51b8152602060048201526016602482015275496e73756666696369656e7420616c6c6f77616e636560501b6044820152606401610394565b6001600160a01b0384166000908152600560205260408120805484929061054d908490610e9f565b90915550506001600160a01b0383166000908152600560205260408120805484929061057a908490610eb2565b90915550506001600160a01b0384166000908152600660209081526040808320338452909152812080548492906105b2908490610e9f565b92505081905550826001600160a01b0316846001600160a01b0316600080516020610f36833981519152846040516105ec91815260200190565b60405180910390a35060019392505050565b6004546000906001600160a01b0316331461062b5760405162461bcd60e51b815260040161039490610ec5565b6106358383610a26565b50600192915050565b6000815183511461068a5760405162461bcd60e51b8152602060048201526016602482015275082e4e4c2f2e640d8cadccee8d040dad2e6dac2e8c6d60531b6044820152606401610394565b6000805b83518110156106d0578381815181106106a9576106a9610f06565b6020026020010151826106bc9190610eb2565b9150806106c881610f1c565b91505061068e565b50336000908152600560205260409020548111156107005760405162461bcd60e51b815260040161039490610e5b565b60005b84518110156108995760006001600160a01b031685828151811061072957610729610f06565b60200260200101516001600160a01b0316036107575760405162461bcd60e51b815260040161039490610e24565b83818151811061076957610769610f06565b602002602001015160056000336001600160a01b03166001600160a01b0316815260200190815260200160002060008282546107a59190610e9f565b925050819055508381815181106107be576107be610f06565b6020026020010151600560008784815181106107dc576107dc610f06565b60200260200101516001600160a01b03166001600160a01b0316815260200190815260200160002060008282546108139190610eb2565b9250508190555084818151811061082c5761082c610f06565b60200260200101516001600160a01b0316336001600160a01b0316600080516020610f3683398151915286848151811061086857610868610f06565b602002602001015160405161087f91815260200190565b60405180910390a38061089181610f1c565b915050610703565b506001949350505050565b600180546102bf90610dea565b60006001600160a01b0383166108d95760405162461bcd60e51b815260040161039490610e24565b336000908152600560205260409020548211156109085760405162461bcd60e51b815260040161039490610e5b565b3360009081526005602052604081208054849290610927908490610e9f565b90915550506001600160a01b03831660009081526005602052604081208054849290610954908490610eb2565b90915550506040518281526001600160a01b038416903390600080516020610f36833981519152906020016103f1565b6004546001600160a01b031633146109ae5760405162461bcd60e51b815260040161039490610ec5565b6001600160a01b038116610a045760405162461bcd60e51b815260206004820152601960248201527f4e6577206f776e6572206973207a65726f2061646472657373000000000000006044820152606401610394565b600480546001600160a01b0319166001600160a01b0392909216919091179055565b6001600160a01b038216610a735760405162461bcd60e51b81526020600482015260146024820152734d696e7420746f207a65726f206164647265737360601b6044820152606401610394565b6001600160a01b03821660009081526005602052604081208054839290610a9b908490610eb2565b925050819055508060036000828254610ab49190610eb2565b90915550506040518181526001600160a01b03831690600090600080516020610f368339815191529060200160405180910390a3816001600160a01b03167f0f6798a560793a54c3bcfe86a93cde1e73087d944c0ea20544137d412139688582604051610b2391815260200190565b60405180910390a25050565b600060208083528351808285015260005b81811015610b5c57858101830151858201604001528201610b40565b506000604082860101526040601f19601f8301168501019250505092915050565b80356001600160a01b0381168114610b9457600080fd5b919050565b60008060408385031215610bac57600080fd5b610bb583610b7d565b946020939093013593505050565b60008060408385031215610bd657600080fd5b610bdf83610b7d565b9150610bed60208401610b7d565b90509250929050565b600080600060608486031215610c0b57600080fd5b610c1484610b7d565b9250610c2260208501610b7d565b9150604084013590509250925092565b600060208284031215610c4457600080fd5b610c4d82610b7d565b9392505050565b634e487b7160e01b600052604160045260246000fd5b604051601f8201601f1916810167ffffffffffffffff81118282101715610c9357610c93610c54565b604052919050565b600067ffffffffffffffff821115610cb557610cb5610c54565b5060051b60200190565b600082601f830112610cd057600080fd5b81356020610ce5610ce083610c9b565b610c6a565b82815260059290921b84018101918181019086841115610d0457600080fd5b8286015b84811015610d1f5780358352918301918301610d08565b509695505050505050565b60008060408385031215610d3d57600080fd5b823567ffffffffffffffff80821115610d5557600080fd5b818501915085601f830112610d6957600080fd5b81356020610d79610ce083610c9b565b82815260059290921b84018101918181019089841115610d9857600080fd5b948201945b83861015610dbd57610dae86610b7d565b82529482019490820190610d9d565b96505086013592505080821115610dd357600080fd5b50610de085828601610cbf565b9150509250929050565b600181811c90821680610dfe57607f821691505b602082108103610e1e57634e487b7160e01b600052602260045260246000fd5b50919050565b60208082526018908201527f5472616e7366657220746f207a65726f20616464726573730000000000000000604082015260600190565b602080825260149082015273496e73756666696369656e742062616c616e636560601b604082015260600190565b634e487b7160e01b600052601160045260246000fd5b818103818111156103fd576103fd610e89565b808201808211156103fd576103fd610e89565b60208082526021908201527f4f6e6c79206f776e65722063616e2063616c6c20746869732066756e6374696f6040820152603760f91b606082015260800190565b634e487b7160e01b600052603260045260246000fd5b600060018201610f2e57610f2e610e89565b506001019056feddf252ad1be2c89b69c2b068fc378daa952ba7f163c4a11628f55a4df523b3efa2646970667358221220ee76df72eb66a789a62d2c26f03039f493155fa1fb9474dd42537ff08f45db8164736f6c63430008130033",
  "linkReferences": {},
  "deployedLinkReferences": {}
}