{
  "_format": "hh-sol-artifact-1",
  "contractName": "MyNFT",
  "sourceName": "contracts/MyNFT.sol",
  "abi": [
    {
      "inputs": [
        {
          "internalType": "string",
          "name": "name_",
          "type": "string"
        },
        {
          "internalType": "string",
          "name": "symbol_",
          "type": "string"
        },
        {
          "internalType": "string",
          "name": "baseTokenURI_",
          "type": "string"
        }
      ],
      "stateMutability": "nonpayable",
      "type": "constructor"
    },
    {
      "anonymous": false,
      "inputs": [
        {
          "indexed": true,
          "internalType": "address",
          "name": "owner",
          "type": "address"
        },
        {
          "indexed": true,
          "internalType": "address",
          "name": "approved",
          "type": "address"
        },
        {
          "indexed": true,
          "internalType": "uint256",
          "name": "tokenId",
          "type": "uint256"
        }
      ],
      "name": "Approval",
      "type": "event"
    },
    {
      "anonymous": false,
      "inputs": [
        {
          "indexed": true,
          "internalType": "address",
          "name": "owner",
          "type": "address"
        },
        {
          "indexed": true,
          "internalType": "address",
          "name": "operator",
          "type": "address"
        },
        {
          "indexed": false,
          "internalType": "bool",
          "name": "approved",
          "type": "bool"
        }
      ],
      "name": "ApprovalForAll",
      "type": "event"
    },
    {
      "anonymous": false,
      "inputs": [
        {
          "indexed": true,
          "internalType": "address",
          "name": "previousOwner",
          "type": "address"
        },
        {
          "indexed": true,
          "internalType": "address",
          "name": "newOwner",
          "type": "address"
        }
      ],
      "name": "OwnershipTransferred",
      "type": "event"
    },
    {
      "anonymous": false,
      "inputs": [
        {
          "indexed": true,
          "internalType": "address",
          "name": "from",
          "type": "address"
        },
        {
          "indexed": true,
          "internalType": "address",
          "name": "to",
          "type": "address"
        },
        {
          "indexed": true,
          "internalType": "uint256",
          "name": "tokenId",
          "type": "uint256"
        }
      ],
      "name": "Transfer",
      "type": "event"
    },
    {
      "inputs": [
        {
          "internalType": "address",
          "name": "to",
          "type": "address"
        },
        {
          "internalType": "uint256",
          "name": "tokenId",
          "type": "uint256"
        }
      ],
      "name": "approve",
      "outputs": [],
      "stateMutability": "nonpayable",
      "type": "function"
    },
    {
      "inputs": [
        {
          "internalType": "address",
          "name": "owner_",
          "type": "address"
        }
      ],
      "name": "balanceOf",
      "outputs": [
        {
          "internalType": "uint256",
          "name": "",
          "type": "uint256"
        }
      ],
      "stateMutability": "view",
      "type": "function"
    },
    {
      "inputs": [
        {
          "internalType": "uint256",
          "name": "tokenId",
          "type": "uint256"
        }
      ],
      "name": "getApproved",
      "outputs": [
        {
          "internalType": "address",
          "name": "",
          "type": "address"
        }
      ],
      "stateMutability": "view",
      "type": "function"
    },
    {
      "inputs": [
        {
          "internalType": "address",
          "name": "owner_",
          "type": "address"
        },
        {
          "internalType": "address",
          "name": "operator",
          "type": "address"
        }
      ],
      "name": "isApprovedForAll",
      "outputs": [
        {
          "internalType": "bool",
          "name": "",
          "type": "bool"
        }
      ],
      "stateMutability": "view",
      "type": "function"
    },
    {
      "inputs": [
        {
          "internalType": "address",
          "name": "recipient",
          "type": "address"
        }
      ],
      "name": "mintNFT",
      "outputs": [
        {
          "internalType": "uint256",
          "name": "",
          "type": "uint256"
        }
      ],
      "stateMutability": "nonpayable",
      "type": "function"
    },
    {
      "inputs": [],
      "name": "name",
      "outputs": [
        {
          "internalType": "string",
          "name": "",
          "type": "string"
        }
      ],
      "stateMutability": "view",
      "type": "function"
    },
    {
      "inputs": [],
      "name": "owner",
      "outputs": [
        {
          "internalType": "address",
          "name": "",
          "type": "address"
        }
      ],
      "stateMutability": "view",
      "type": "function"
    },
    {
      "inputs": [
        {
          "internalType": "uint256",
          "name": "tokenId",
          "type": "uint256"
        }
      ],
      "name": "ownerOf",
      "outputs": [
        {
          "internalType": "address",
          "name": "",
          "type": "address"
        }
      ],
      "stateMutability": "view",
      "type": "function"
    },
    {
      "inputs": [
        {
          "internalType": "address",
          "name": "from",
          "type": "address"
        },
        {
          "internalType": "address",
          "name": "to",
          "type": "address"
        },
        {
          "internalType": "uint256",
          "name": "tokenId",
          "type": "uint256"
        }
      ],
      "name": "safeTransferFrom",
      "outputs": [],
      "stateMutability": "nonpayable",
      "type": "function"
    },
    {
      "inputs": [
        {
          "internalType": "address",
          "name": "from",
          "type": "address"
        },
        {
          "internalType": "address",
          "name": "to",
          "type": "address"
        },
        {
          "internalType": "uint256",
          "name": "tokenId",
          "type": "uint256"
        },
        {
          "internalType": "bytes",
          "name": "data",
          "type": "bytes"
        }
      ],
      "name": "safeTransferFrom",
      "outputs": [],
      "stateMutability": "nonpayable",
      "type": "function"
    },
    {
      "inputs": [
        {
          "internalType": "address",
          "name": "operator",
          "type": "address"
        },
        {
          "internalType": "bool",
          "name": "approved",
          "type": "bool"
        }
      ],
      "name": "setApprovalForAll",
      "outputs": [],
      "stateMutability": "nonpayable",
      "type": "function"
    },
    {
      "inputs": [
        {
          "internalType": "string",
          "name": "baseURI",
          "type": "string"
        }
      ],
      "name": "setBaseURI",
      "outputs": [],
      "stateMutability": "nonpayable",
      "type": "function"
    },
    {
      "inputs": [],
      "name": "symbol",
      "outputs": [
        {
          "internalType": "string",
          "name": "",
          "type": "string"
        }
      ],
      "stateMutability": "view",
      "type": "function"
    },
    {
      "inputs": [
        {
          "internalType": "uint256",
          "name": "tokenId",
          "type": "uint256"
        }
      ],
      "name": "tokenURI",
      "outputs": [
        {
          "internalType": "string",
          "name": "",
          "type": "string"
        }
      ],
      "stateMutability": "view",
      "type": "function"
    },
    {
      "inputs": [
        {
          "internalType": "address",
          "name": "from",
          "type": "address"
        },
        {
          "internalType": "address",
          "name": "to",
          "type": "address"
        },
        {
          "internalType": "uint256",
          "name": "tokenId",
          "type": "uint256"
        }
      ],
      "name": "transferFrom",
      "outputs": [],
      "stateMutability": "nonpayable",
      "type": "function"
    },
    {
      "inputs": [
        {
          "internalType": "address",
          "name": "newOwner",
          "type": "address"
        }
      ],
      "name": "transferOwnership",
      "outputs": [],
      "stateMutability": "nonpayable",
      "type": "function"
    }
  ],
  "bytecode": "0x60806040523480156200001157600080fd5b506040516200301a3803806200301a8339818101604052810190620000379190620002a5565b8260009081620000489190620005a9565b5081600190816200005a9190620005a9565b5080600290816200006c9190620005a9565b5033600860006101000a81548173ffffffffffffffffffffffffffffffffffffffff021916908373ffffffffffffffffffffffffffffffffffffffff1602179055503373ffffffffffffffffffffffffffffffffffffffff16600073ffffffffffffffffffffffffffffffffffffffff167f8be0079c531659141344cd1fd0a4f28419497f9722a3daafe3b4186f6b6457e060405160405180910390a350505062000690565b6000604051905090565b600080fd5b600080fd5b600080fd5b600080fd5b6000601f19601f8301169050919050565b7f4e487b7100000000000000000000000000000000000000000000000000000000600052604160045260246000fd5b6200017b8262000130565b810181811067ffffffffffffffff821117156200019d576200019c62000141565b5b80604052505050565b6000620001b262000112565b9050620001c0828262000170565b919050565b600067ffffffffffffffff821115620001e357620001e262000141565b5b620001ee8262000130565b9050602081019050919050565b60005b838110156200021b578082015181840152602081019050620001fe565b60008484015250505050565b60006200023e6200023884620001c5565b620001a6565b9050828152602081018484840111156200025d576200025c6200012b565b5b6200026a848285620001fb565b509392505050565b600082601f8301126200028a576200028962000126565b5b81516200029c84826020860162000227565b91505092915050565b600080600060608486031215620002c157620002c06200011c565b5b600084015167ffffffffffffffff811115620002e257620002e162000121565b5b620002f08682870162000272565b935050602084015167ffffffffffffffff81111562000314576200031362000121565b5b620003228682870162000272565b925050604084015167ffffffffffffffff81111562000346576200034562000121565b5b620003548682870162000272565b9150509250925092565b600081519050919050565b7f4e487b7100000000000000000000000000000000000000000000000000000000600052602260045260246000fd5b60006002820490506001821680620003b157607f821691505b602082108103620003c757620003c662000369565b5b50919050565b60008190508160005260206000209050919050565b60006020601f8301049050919050565b600082821b905092915050565b600060088302620004317fffffffffffffffffffffffffffffffffffffffffffffffffffffffffffffffff82620003f2565b6200043d8683620003f2565b95508019841693508086168417925050509392505050565b6000819050919050565b6000819050919050565b60006200048a620004846200047e8462000455565b6200045f565b62000455565b9050919050565b6000819050919050565b620004a68362000469565b620004be620004b58262000491565b848454620003ff565b825550505050565b600090565b620004d5620004c6565b620004e28184846200049b565b505050565b5b818110156200050a57620004fe600082620004cb565b600181019050620004e8565b5050565b601f82111562000559576200052381620003cd565b6200052e84620003e2565b810160208510156200053e578190505b620005566200054d85620003e2565b830182620004e7565b50505b505050565b600082821c905092915050565b60006200057e600019846008026200055e565b1980831691505092915050565b60006200059983836200056b565b9150826002028217905092915050565b620005b4826200035e565b67ffffffffffffffff811115620005d057620005cf62000141565b5b620005dc825462000398565b620005e98282856200050e565b600060209050601f8311600181146200062157600084156200060c578287015190505b6200061885826200058b565b86555062000688565b601f1984166200063186620003cd565b60005b828110156200065b5784890151825560018201915060208501945060208101905062000634565b868310156200067b578489015162000677601f8916826200056b565b8355505b6001600288020188555050505b505050505050565b61297a80620006a06000396000f3fe608060405234801561001057600080fd5b50600436106101005760003560e01c806370a0823111610097578063b88d4fde11610066578063b88d4fde146102ab578063c87b56dd146102c7578063e985e9c5146102f7578063f2fde38b1461032757610100565b806370a08231146102235780638da5cb5b1461025357806395d89b4114610271578063a22cb4651461028f57610100565b806342842e0e116100d357806342842e0e1461018b57806354ba0f27146101a757806355f804b3146101d75780636352211e146101f357610100565b806306fdde0314610105578063081812fc14610123578063095ea7b31461015357806323b872dd1461016f575b600080fd5b61010d610343565b60405161011a9190611698565b60405180910390f35b61013d60048036038101906101389190611704565b6103d5565b60405161014a9190611772565b60405180910390f35b61016d600480360381019061016891906117b9565b61041b565b005b610189600480360381019061018491906117f9565b6105c7565b005b6101a560048036038101906101a091906117f9565b610620565b005b6101c160048036038101906101bc919061184c565b610640565b6040516101ce9190611888565b60405180910390f35b6101f160048036038101906101ec91906119d8565b6107dd565b005b61020d60048036038101906102089190611704565b610880565b60405161021a9190611772565b60405180910390f35b61023d6004803603810190610238919061184c565b610931565b60405161024a9190611888565b60405180910390f35b61025b6109e8565b6040516102689190611772565b60405180910390f35b610279610a12565b6040516102869190611698565b60405180910390f35b6102a960048036038101906102a49190611a59565b610aa4565b005b6102c560048036038101906102c09190611b3a565b610ab3565b005b6102e160048036038101906102dc9190611704565b610b0e565b6040516102ee9190611698565b60405180910390f35b610311600480360381019061030c9190611bbd565b610b4b565b60405161031e9190611c0c565b60405180910390f35b610341600480360381019061033c919061184c565b610bdf565b005b60606000805461035290611c56565b80601f016020809104026020016040519081016040528092919081815260200182805461037e90611c56565b80156103cb5780601f106103a0576101008083540402835291602001916103cb565b820191906000526020600020905b8154815290600101906020018083116103ae57829003601f168201915b5050505050905090565b60006103e082610cea565b6005600083815260200190815260200160002060009054906101000a900473ffffffffffffffffffffffffffffffffffffffff169050919050565b600061042682610880565b90508073ffffffffffffffffffffffffffffffffffffffff168373ffffffffffffffffffffffffffffffffffffffff1603610496576040517f08c379a000000000000000000000000000000000000000000000000000000000815260040161048d90611cf9565b60405180910390fd5b8073ffffffffffffffffffffffffffffffffffffffff163373ffffffffffffffffffffffffffffffffffffffff1614806104d657506104d58133610b4b565b5b610515576040517f08c379a000000000000000000000000000000000000000000000000000000000815260040161050c90611d8b565b60405180910390fd5b826005600084815260200190815260200160002060006101000a81548173ffffffffffffffffffffffffffffffffffffffff021916908373ffffffffffffffffffffffffffffffffffffffff160217905550818373ffffffffffffffffffffffffffffffffffffffff168273ffffffffffffffffffffffffffffffffffffffff167f8c5be1e5ebec7d5bd14f71427d1e84f3dd0314c0f7b2291e5b200ac8c7c3b92560405160405180910390a4505050565b6105d13382610d8f565b610610576040517f08c379a000000000000000000000000000000000000000000000000000000000815260040161060790611e1d565b60405180910390fd5b61061b838383610e24565b505050565b61063b83838360405180602001604052806000815250610ab3565b505050565b60008073ffffffffffffffffffffffffffffffffffffffff168273ffffffffffffffffffffffffffffffffffffffff16036106b0576040517f08c379a00000000000000000000000000000000000000000000000000000000081526004016106a790611e89565b60405180910390fd5b600760008154809291906106c390611ed8565b9190505550600060075490506001600460008573ffffffffffffffffffffffffffffffffffffffff1673ffffffffffffffffffffffffffffffffffffffff168152602001908152602001600020600082825461071f9190611f20565b92505081905550826003600083815260200190815260200160002060006101000a81548173ffffffffffffffffffffffffffffffffffffffff021916908373ffffffffffffffffffffffffffffffffffffffff160217905550808373ffffffffffffffffffffffffffffffffffffffff16600073ffffffffffffffffffffffffffffffffffffffff167fddf252ad1be2c89b69c2b068fc378daa952ba7f163c4a11628f55a4df523b3ef60405160405180910390a480915050919050565b3373ffffffffffffffffffffffffffffffffffffffff16600860009054906101000a900473ffffffffffffffffffffffffffffffffffffffff1673ffffffffffffffffffffffffffffffffffffffff161461086d576040517f08c379a000000000000000000000000000000000000000000000000000000000815260040161086490611fa0565b60405180910390fd5b806002908161087c919061216c565b5050565b6000806003600084815260200190815260200160002060009054906101000a900473ffffffffffffffffffffffffffffffffffffffff169050600073ffffffffffffffffffffffffffffffffffffffff168173ffffffffffffffffffffffffffffffffffffffff1603610928576040517f08c379a000000000000000000000000000000000000000000000000000000000815260040161091f9061228a565b60405180910390fd5b80915050919050565b60008073ffffffffffffffffffffffffffffffffffffffff168273ffffffffffffffffffffffffffffffffffffffff16036109a1576040517f08c379a00000000000000000000000000000000000000000000000000000000081526004016109989061231c565b60405180910390fd5b600460008373ffffffffffffffffffffffffffffffffffffffff1673ffffffffffffffffffffffffffffffffffffffff168152602001908152602001600020549050919050565b6000600860009054906101000a900473ffffffffffffffffffffffffffffffffffffffff16905090565b606060018054610a2190611c56565b80601f0160208091040260200160405190810160405280929190818152602001828054610a4d90611c56565b8015610a9a5780601f10610a6f57610100808354040283529160200191610a9a565b820191906000526020600020905b815481529060010190602001808311610a7d57829003601f168201915b5050505050905090565b610aaf33838361109f565b5050565b610abd3383610d8f565b610afc576040517f08c379a0000000000000000000000000000000000000000000000000000000008152600401610af390611e1d565b60405180910390fd5b610b088484848461120b565b50505050565b6060610b1982610cea565b6002610b2483611267565b604051602001610b35929190612447565b6040516020818303038152906040529050919050565b6000600660008473ffffffffffffffffffffffffffffffffffffffff1673ffffffffffffffffffffffffffffffffffffffff16815260200190815260200160002060008373ffffffffffffffffffffffffffffffffffffffff1673ffffffffffffffffffffffffffffffffffffffff16815260200190815260200160002060009054906101000a900460ff16905092915050565b3373ffffffffffffffffffffffffffffffffffffffff16600860009054906101000a900473ffffffffffffffffffffffffffffffffffffffff1673ffffffffffffffffffffffffffffffffffffffff1614610c6f576040517f08c379a0000000000000000000000000000000000000000000000000000000008152600401610c6690611fa0565b60405180910390fd5b600073ffffffffffffffffffffffffffffffffffffffff168173ffffffffffffffffffffffffffffffffffffffff1603610cde576040517f08c379a0000000000000000000000000000000000000000000000000000000008152600401610cd5906124e8565b60405180910390fd5b610ce7816113c7565b50565b600073ffffffffffffffffffffffffffffffffffffffff166003600083815260200190815260200160002060009054906101000a900473ffffffffffffffffffffffffffffffffffffffff1673ffffffffffffffffffffffffffffffffffffffff1603610d8c576040517f08c379a0000000000000000000000000000000000000000000000000000000008152600401610d839061228a565b60405180910390fd5b50565b600080610d9b83610880565b90508073ffffffffffffffffffffffffffffffffffffffff168473ffffffffffffffffffffffffffffffffffffffff161480610ddd5750610ddc8185610b4b565b5b80610e1b57508373ffffffffffffffffffffffffffffffffffffffff16610e03846103d5565b73ffffffffffffffffffffffffffffffffffffffff16145b91505092915050565b8273ffffffffffffffffffffffffffffffffffffffff16610e4482610880565b73ffffffffffffffffffffffffffffffffffffffff1614610e9a576040517f08c379a0000000000000000000000000000000000000000000000000000000008152600401610e919061257a565b60405180910390fd5b600073ffffffffffffffffffffffffffffffffffffffff168273ffffffffffffffffffffffffffffffffffffffff1603610f09576040517f08c379a0000000000000000000000000000000000000000000000000000000008152600401610f009061260c565b60405180910390fd5b6005600082815260200190815260200160002060006101000a81549073ffffffffffffffffffffffffffffffffffffffff02191690556001600460008573ffffffffffffffffffffffffffffffffffffffff1673ffffffffffffffffffffffffffffffffffffffff1681526020019081526020016000206000828254610f8f919061262c565b925050819055506001600460008473ffffffffffffffffffffffffffffffffffffffff1673ffffffffffffffffffffffffffffffffffffffff1681526020019081526020016000206000828254610fe69190611f20565b92505081905550816003600083815260200190815260200160002060006101000a81548173ffffffffffffffffffffffffffffffffffffffff021916908373ffffffffffffffffffffffffffffffffffffffff160217905550808273ffffffffffffffffffffffffffffffffffffffff168473ffffffffffffffffffffffffffffffffffffffff167fddf252ad1be2c89b69c2b068fc378daa952ba7f163c4a11628f55a4df523b3ef60405160405180910390a4505050565b8173ffffffffffffffffffffffffffffffffffffffff168373ffffffffffffffffffffffffffffffffffffffff160361110d576040517f08c379a0000000000000000000000000000000000000000000000000000000008152600401611104906126ac565b60405180910390fd5b80600660008573ffffffffffffffffffffffffffffffffffffffff1673ffffffffffffffffffffffffffffffffffffffff16815260200190815260200160002060008473ffffffffffffffffffffffffffffffffffffffff1673ffffffffffffffffffffffffffffffffffffffff16815260200190815260200160002060006101000a81548160ff0219169083151502179055508173ffffffffffffffffffffffffffffffffffffffff168373ffffffffffffffffffffffffffffffffffffffff167f17307eab39ab6107e8899845ad3d59bd9653f200f220920489ca2b5937696c31836040516111fe9190611c0c565b60405180910390a3505050565b611216848484610e24565b6112228484848461148d565b611261576040517f08c379a00000000000000000000000000000000000000000000000000000000081526004016112589061273e565b60405180910390fd5b50505050565b6060600082036112ae576040518060400160405280600181526020017f300000000000000000000000000000000000000000000000000000000000000081525090506113c2565b600082905060005b600082146112e05780806112c990611ed8565b915050600a826112d9919061278d565b91506112b6565b60008167ffffffffffffffff8111156112fc576112fb6118ad565b5b6040519080825280601f01601f19166020018201604052801561132e5781602001600182028036833780820191505090505b5090505b600085146113bb57600182611347919061262c565b9150600a8561135691906127be565b60306113629190611f20565b60f81b818381518110611378576113776127ef565b5b60200101907effffffffffffffffffffffffffffffffffffffffffffffffffffffffffffff1916908160001a905350600a856113b4919061278d565b9450611332565b8093505050505b919050565b6000600860009054906101000a900473ffffffffffffffffffffffffffffffffffffffff16905081600860006101000a81548173ffffffffffffffffffffffffffffffffffffffff021916908373ffffffffffffffffffffffffffffffffffffffff1602179055508173ffffffffffffffffffffffffffffffffffffffff168173ffffffffffffffffffffffffffffffffffffffff167f8be0079c531659141344cd1fd0a4f28419497f9722a3daafe3b4186f6b6457e060405160405180910390a35050565b6000808473ffffffffffffffffffffffffffffffffffffffff163b11156115fb578373ffffffffffffffffffffffffffffffffffffffff1663150b7a02338786866040518563ffffffff1660e01b81526004016114ed9493929190612873565b6020604051808303816000875af192505050801561152957506040513d601f19601f820116820180604052508101906115269190612917565b60015b6115ab573d8060008114611559576040519150601f19603f3d011682016040523d82523d6000602084013e61155e565b606091505b5060008151036115a3576040517f08c379a000000000000000000000000000000000000000000000000000000000815260040161159a9061273e565b60405180910390fd5b805181602001fd5b63150b7a0260e01b7bffffffffffffffffffffffffffffffffffffffffffffffffffffffff1916817bffffffffffffffffffffffffffffffffffffffffffffffffffffffff191614915050611600565b600190505b949350505050565b600081519050919050565b600082825260208201905092915050565b60005b83811015611642578082015181840152602081019050611627565b60008484015250505050565b6000601f19601f8301169050919050565b600061166a82611608565b6116748185611613565b9350611684818560208601611624565b61168d8161164e565b840191505092915050565b600060208201905081810360008301526116b2818461165f565b905092915050565b6000604051905090565b600080fd5b600080fd5b6000819050919050565b6116e1816116ce565b81146116ec57600080fd5b50565b6000813590506116fe816116d8565b92915050565b60006020828403121561171a576117196116c4565b5b6000611728848285016116ef565b91505092915050565b600073ffffffffffffffffffffffffffffffffffffffff82169050919050565b600061175c82611731565b9050919050565b61176c81611751565b82525050565b60006020820190506117876000830184611763565b92915050565b61179681611751565b81146117a157600080fd5b50565b6000813590506117b38161178d565b92915050565b600080604083850312156117d0576117cf6116c4565b5b60006117de858286016117a4565b92505060206117ef858286016116ef565b9150509250929050565b600080600060608486031215611812576118116116c4565b5b6000611820868287016117a4565b9350506020611831868287016117a4565b9250506040611842868287016116ef565b9150509250925092565b600060208284031215611862576118616116c4565b5b6000611870848285016117a4565b91505092915050565b611882816116ce565b82525050565b600060208201905061189d6000830184611879565b92915050565b600080fd5b600080fd5b7f4e487b7100000000000000000000000000000000000000000000000000000000600052604160045260246000fd5b6118e58261164e565b810181811067ffffffffffffffff82111715611904576119036118ad565b5b80604052505050565b60006119176116ba565b905061192382826118dc565b919050565b600067ffffffffffffffff821115611943576119426118ad565b5b61194c8261164e565b9050602081019050919050565b82818337600083830152505050565b600061197b61197684611928565b61190d565b905082815260208101848484011115611997576119966118a8565b5b6119a2848285611959565b509392505050565b600082601f8301126119bf576119be6118a3565b5b81356119cf848260208601611968565b91505092915050565b6000602082840312156119ee576119ed6116c4565b5b600082013567ffffffffffffffff811115611a0c57611a0b6116c9565b5b611a18848285016119aa565b91505092915050565b60008115159050919050565b611a3681611a21565b8114611a4157600080fd5b50565b600081359050611a5381611a2d565b92915050565b60008060408385031215611a7057611a6f6116c4565b5b6000611a7e858286016117a4565b9250506020611a8f85828601611a44565b9150509250929050565b600067ffffffffffffffff821115611ab457611ab36118ad565b5b611abd8261164e565b9050602081019050919050565b6000611add611ad884611a99565b61190d565b905082815260208101848484011115611af957611af86118a8565b5b611b04848285611959565b509392505050565b600082601f830112611b2157611b206118a3565b5b8135611b31848260208601611aca565b91505092915050565b60008060008060808587031215611b5457611b536116c4565b5b6000611b62878288016117a4565b9450506020611b73878288016117a4565b9350506040611b84878288016116ef565b925050606085013567ffffffffffffffff811115611ba557611ba46116c9565b5b611bb187828801611b0c565b91505092959194509250565b60008060408385031215611bd457611bd36116c4565b5b6000611be2858286016117a4565b9250506020611bf3858286016117a4565b9150509250929050565b611c0681611a21565b82525050565b6000602082019050611c216000830184611bfd565b92915050565b7f4e487b7100000000000000000000000000000000000000000000000000000000600052602260045260246000fd5b60006002820490506001821680611c6e57607f821691505b602082108103611c8157611c80611c27565b5b50919050565b7f4552433732313a20617070726f76616c20746f2063757272656e74206f776e6560008201527f7200000000000000000000000000000000000000000000000000000000000000602082015250565b6000611ce3602183611613565b9150611cee82611c87565b604082019050919050565b60006020820190508181036000830152611d1281611cd6565b9050919050565b7f4552433732313a20617070726f76652063616c6c6572206973206e6f7420746f60008201527f6b656e206f776e6572206f7220617070726f76656420666f7220616c6c000000602082015250565b6000611d75603d83611613565b9150611d8082611d19565b604082019050919050565b60006020820190508181036000830152611da481611d68565b9050919050565b7f4552433732313a2063616c6c6572206973206e6f7420746f6b656e206f776e6560008201527f72206f7220617070726f76656400000000000000000000000000000000000000602082015250565b6000611e07602d83611613565b9150611e1282611dab565b604082019050919050565b60006020820190508181036000830152611e3681611dfa565b9050919050565b7f4552433732313a206d696e7420746f20746865207a65726f2061646472657373600082015250565b6000611e73602083611613565b9150611e7e82611e3d565b602082019050919050565b60006020820190508181036000830152611ea281611e66565b9050919050565b7f4e487b7100000000000000000000000000000000000000000000000000000000600052601160045260246000fd5b6000611ee3826116ce565b91507fffffffffffffffffffffffffffffffffffffffffffffffffffffffffffffffff8203611f1557611f14611ea9565b5b600182019050919050565b6000611f2b826116ce565b9150611f36836116ce565b9250828201905080821115611f4e57611f4d611ea9565b5b92915050565b7f4f776e61626c653a2063616c6c6572206973206e6f7420746865206f776e6572600082015250565b6000611f8a602083611613565b9150611f9582611f54565b602082019050919050565b60006020820190508181036000830152611fb981611f7d565b9050919050565b60008190508160005260206000209050919050565b60006020601f8301049050919050565b600082821b905092915050565b6000600883026120227fffffffffffffffffffffffffffffffffffffffffffffffffffffffffffffffff82611fe5565b61202c8683611fe5565b95508019841693508086168417925050509392505050565b6000819050919050565b600061206961206461205f846116ce565b612044565b6116ce565b9050919050565b6000819050919050565b6120838361204e565b61209761208f82612070565b848454611ff2565b825550505050565b600090565b6120ac61209f565b6120b781848461207a565b505050565b5b818110156120db576120d06000826120a4565b6001810190506120bd565b5050565b601f821115612120576120f181611fc0565b6120fa84611fd5565b81016020851015612109578190505b61211d61211585611fd5565b8301826120bc565b50505b505050565b600082821c905092915050565b600061214360001984600802612125565b1980831691505092915050565b600061215c8383612132565b9150826002028217905092915050565b61217582611608565b67ffffffffffffffff81111561218e5761218d6118ad565b5b6121988254611c56565b6121a38282856120df565b600060209050601f8311600181146121d657600084156121c4578287015190505b6121ce8582612150565b865550612236565b601f1984166121e486611fc0565b60005b8281101561220c578489015182556001820191506020850194506020810190506121e7565b868310156122295784890151612225601f891682612132565b8355505b6001600288020188555050505b505050505050565b7f4552433732313a20696e76616c696420746f6b656e2049440000000000000000600082015250565b6000612274601883611613565b915061227f8261223e565b602082019050919050565b600060208201905081810360008301526122a381612267565b9050919050565b7f4552433732313a2061646472657373207a65726f206973206e6f74206120766160008201527f6c6964206f776e65720000000000000000000000000000000000000000000000602082015250565b6000612306602983611613565b9150612311826122aa565b604082019050919050565b60006020820190508181036000830152612335816122f9565b9050919050565b600081905092915050565b6000815461235481611c56565b61235e818661233c565b94506001821660008114612379576001811461238e576123c1565b60ff19831686528115158202860193506123c1565b61239785611fc0565b60005b838110156123b95781548189015260018201915060208101905061239a565b838801955050505b50505092915050565b60006123d582611608565b6123df818561233c565b93506123ef818560208601611624565b80840191505092915050565b7f2e6a736f6e000000000000000000000000000000000000000000000000000000600082015250565b600061243160058361233c565b915061243c826123fb565b600582019050919050565b60006124538285612347565b915061245f82846123ca565b915061246a82612424565b91508190509392505050565b7f4f776e61626c653a206e6577206f776e657220697320746865207a65726f206160008201527f6464726573730000000000000000000000000000000000000000000000000000602082015250565b60006124d2602683611613565b91506124dd82612476565b604082019050919050565b60006020820190508181036000830152612501816124c5565b9050919050565b7f4552433732313a207472616e736665722066726f6d20696e636f72726563742060008201527f6f776e6572000000000000000000000000000000000000000000000000000000602082015250565b6000612564602583611613565b915061256f82612508565b604082019050919050565b6000602082019050818103600083015261259381612557565b9050919050565b7f4552433732313a207472616e7366657220746f20746865207a65726f2061646460008201527f7265737300000000000000000000000000000000000000000000000000000000602082015250565b60006125f6602483611613565b91506126018261259a565b604082019050919050565b60006020820190508181036000830152612625816125e9565b9050919050565b6000612637826116ce565b9150612642836116ce565b925082820390508181111561265a57612659611ea9565b5b92915050565b7f4552433732313a20617070726f766520746f2063616c6c657200000000000000600082015250565b6000612696601983611613565b91506126a182612660565b602082019050919050565b600060208201905081810360008301526126c581612689565b9050919050565b7f4552433732313a207472616e7366657220746f206e6f6e20455243373231526560008201527f63656976657220696d706c656d656e7465720000000000000000000000000000602082015250565b6000612728603283611613565b9150612733826126cc565b604082019050919050565b600060208201905081810360008301526127578161271b565b9050919050565b7f4e487b7100000000000000000000000000000000000000000000000000000000600052601260045260246000fd5b6000612798826116ce565b91506127a3836116ce565b9250826127b3576127b261275e565b5b828204905092915050565b60006127c9826116ce565b91506127d4836116ce565b9250826127e4576127e361275e565b5b828206905092915050565b7f4e487b7100000000000000000000000000000000000000000000000000000000600052603260045260246000fd5b600081519050919050565b600082825260208201905092915050565b60006128458261281e565b61284f8185612829565b935061285f818560208601611624565b6128688161164e565b840191505092915050565b60006080820190506128886000830187611763565b6128956020830186611763565b6128a26040830185611879565b81810360608301526128b4818461283a565b905095945050505050565b60007fffffffff0000000000000000000000000000000000000000000000000000000082169050919050565b6128f4816128bf565b81146128ff57600080fd5b50565b600081519050612911816128eb565b92915050565b60006020828403121561292d5761292c6116c4565b5b600061293b84828501612902565b9150509291505056fea264697066735822122008fc808133791a6522b58fd2d5937dffbda584a2f40a5aefbaa747248f31f6e464736f6c63430008130033",
  "linkReferences": {},
  "deployedLinkReferences": {}
}