{
  "_format": "hh-sol-artifact-1",
  "contractName": "IntToRoman",
  "sourceName": "contracts/IntToRoman.sol",
  "abi": [
    {
      "inputs": [],
      "stateMutability": "nonpayable",
      "type": "constructor"
    },
    {
      "inputs": [
        {
          "internalType": "uint256[]",
          "name": "nums",
          "type": "uint256[]"
        }
      ],
      "name": "batchToRoman",
      "outputs": [
        {
          "internalType": "string[]",
          "name": "",
          "type": "string[]"
        }
      ],
      "stateMutability": "pure",
      "type": "function"
    },
    {
      "inputs": [
        {
          "internalType": "uint256",
          "name": "num",
          "type": "uint256"
        }
      ],
      "name": "toRoman",
      "outputs": [
        {
          "internalType": "string",
          "name": "",
          "type": "string"
        }
      ],
      "stateMutability": "view",
      "type": "function"
    },
    {
      "inputs": [
        {
          "internalType": "uint256",
          "name": "num",
          "type": "uint256"
        }
      ],
      "name": "toRomanOptimized",
      "outputs": [
        {
          "internalType": "string",
          "name": "",
          "type": "string"
        }
      ],
      "stateMutability": "pure",
      "type": "function"
    }
  ],
  "bytecode": "0x60806040523480156200001157600080fd5b50600060405180604001604052806103e881526020016040518060400160405280600181526020017f4d000000000000000000000000000000000000000000000000000000000000008152508152509080600181540180825580915050600190039060005260206000209060020201600090919091909150600082015181600001556020820151816001019081620000aa919062000a68565b5050506000604051806040016040528061038481526020016040518060400160405280600281526020017f434d000000000000000000000000000000000000000000000000000000000000815250815250908060018154018082558091505060019003906000526020600020906002020160009091909190915060008201518160000155602082015181600101908162000145919062000a68565b505050600060405180604001604052806101f481526020016040518060400160405280600181526020017f44000000000000000000000000000000000000000000000000000000000000008152508152509080600181540180825580915050600190039060005260206000209060020201600090919091909150600082015181600001556020820151816001019081620001e0919062000a68565b5050506000604051806040016040528061019081526020016040518060400160405280600281526020017f434400000000000000000000000000000000000000000000000000000000000081525081525090806001815401808255809150506001900390600052602060002090600202016000909190919091506000820151816000015560208201518160010190816200027b919062000a68565b50505060006040518060400160405280606481526020016040518060400160405280600181526020017f4300000000000000000000000000000000000000000000000000000000000000815250815250908060018154018082558091505060019003906000526020600020906002020160009091909190915060008201518160000155602082015181600101908162000315919062000a68565b50505060006040518060400160405280605a81526020016040518060400160405280600281526020017f58430000000000000000000000000000000000000000000000000000000000008152508152509080600181540180825580915050600190039060005260206000209060020201600090919091909150600082015181600001556020820151816001019081620003af919062000a68565b50505060006040518060400160405280603281526020016040518060400160405280600181526020017f4c00000000000000000000000000000000000000000000000000000000000000815250815250908060018154018082558091505060019003906000526020600020906002020160009091909190915060008201518160000155602082015181600101908162000449919062000a68565b50505060006040518060400160405280602881526020016040518060400160405280600281526020017f584c0000000000000000000000000000000000000000000000000000000000008152508152509080600181540180825580915050600190039060005260206000209060020201600090919091909150600082015181600001556020820151816001019081620004e3919062000a68565b50505060006040518060400160405280600a81526020016040518060400160405280600181526020017f580000000000000000000000000000000000000000000000000000000000000081525081525090806001815401808255809150506001900390600052602060002090600202016000909190919091506000820151816000015560208201518160010190816200057d919062000a68565b50505060006040518060400160405280600981526020016040518060400160405280600281526020017f4958000000000000000000000000000000000000000000000000000000000000815250815250908060018154018082558091505060019003906000526020600020906002020160009091909190915060008201518160000155602082015181600101908162000617919062000a68565b50505060006040518060400160405280600581526020016040518060400160405280600181526020017f56000000000000000000000000000000000000000000000000000000000000008152508152509080600181540180825580915050600190039060005260206000209060020201600090919091909150600082015181600001556020820151816001019081620006b1919062000a68565b50505060006040518060400160405280600481526020016040518060400160405280600281526020017f495600000000000000000000000000000000000000000000000000000000000081525081525090806001815401808255809150506001900390600052602060002090600202016000909190919091506000820151816000015560208201518160010190816200074b919062000a68565b50505060006040518060400160405280600181526020016040518060400160405280600181526020017f49000000000000000000000000000000000000000000000000000000000000008152508152509080600181540180825580915050600190039060005260206000209060020201600090919091909150600082015181600001556020820151816001019081620007e5919062000a68565b50505062000b4f565b600081519050919050565b7f4e487b7100000000000000000000000000000000000000000000000000000000600052604160045260246000fd5b7f4e487b7100000000000000000000000000000000000000000000000000000000600052602260045260246000fd5b600060028204905060018216806200087057607f821691505b60208210810362000886576200088562000828565b5b50919050565b60008190508160005260206000209050919050565b60006020601f8301049050919050565b600082821b905092915050565b600060088302620008f07fffffffffffffffffffffffffffffffffffffffffffffffffffffffffffffffff82620008b1565b620008fc8683620008b1565b95508019841693508086168417925050509392505050565b6000819050919050565b6000819050919050565b600062000949620009436200093d8462000914565b6200091e565b62000914565b9050919050565b6000819050919050565b620009658362000928565b6200097d620009748262000950565b848454620008be565b825550505050565b600090565b6200099462000985565b620009a18184846200095a565b505050565b5b81811015620009c957620009bd6000826200098a565b600181019050620009a7565b5050565b601f82111562000a1857620009e2816200088c565b620009ed84620008a1565b81016020851015620009fd578190505b62000a1562000a0c85620008a1565b830182620009a6565b50505b505050565b600082821c905092915050565b600062000a3d6000198460080262000a1d565b1980831691505092915050565b600062000a58838362000a2a565b9150826002028217905092915050565b62000a7382620007ee565b67ffffffffffffffff81111562000a8f5762000a8e620007f9565b5b62000a9b825462000857565b62000aa8828285620009cd565b600060209050601f83116001811462000ae0576000841562000acb578287015190505b62000ad7858262000a4a565b86555062000b47565b601f19841662000af0866200088c565b60005b8281101562000b1a5784890151825560018201915060208501945060208101905062000af3565b8683101562000b3a578489015162000b36601f89168262000a2a565b8355505b6001600288020188555050505b505050505050565b6110ea8062000b5f6000396000f3fe608060405234801561001057600080fd5b50600436106100415760003560e01c806344d2e0961461004657806377dc7d3414610076578063ab7baabe146100a6575b600080fd5b610060600480360381019061005b9190610c0f565b6100d6565b60405161006d9190610d99565b60405180910390f35b610090600480360381019061008b9190610dbb565b610195565b60405161009d9190610e32565b60405180910390f35b6100c060048036038101906100bb9190610dbb565b6105b1565b6040516100cd9190610e32565b60405180910390f35b60606000825167ffffffffffffffff8111156100f5576100f4610a96565b5b60405190808252806020026020018201604052801561012857816020015b60608152602001906001900390816101135790505b50905060005b835181101561018b5761015a84828151811061014d5761014c610e54565b5b6020026020010151610195565b82828151811061016d5761016c610e54565b5b6020026020010181905250808061018390610eb2565b91505061012e565b5080915050919050565b60606000821180156101a85750610fa082105b6101e7576040517f08c379a00000000000000000000000000000000000000000000000000000000081526004016101de90610f6c565b60405180910390fd5b6000604051806101a001604052806040518060400160405280600181526020017f4d0000000000000000000000000000000000000000000000000000000000000081525081526020016040518060400160405280600281526020017f434d00000000000000000000000000000000000000000000000000000000000081525081526020016040518060400160405280600181526020017f440000000000000000000000000000000000000000000000000000000000000081525081526020016040518060400160405280600281526020017f434400000000000000000000000000000000000000000000000000000000000081525081526020016040518060400160405280600181526020017f430000000000000000000000000000000000000000000000000000000000000081525081526020016040518060400160405280600281526020017f584300000000000000000000000000000000000000000000000000000000000081525081526020016040518060400160405280600181526020017f4c0000000000000000000000000000000000000000000000000000000000000081525081526020016040518060400160405280600281526020017f584c00000000000000000000000000000000000000000000000000000000000081525081526020016040518060400160405280600181526020017f580000000000000000000000000000000000000000000000000000000000000081525081526020016040518060400160405280600281526020017f495800000000000000000000000000000000000000000000000000000000000081525081526020016040518060400160405280600181526020017f560000000000000000000000000000000000000000000000000000000000000081525081526020016040518060400160405280600281526020017f495600000000000000000000000000000000000000000000000000000000000081525081526020016040518060400160405280600181526020017f4900000000000000000000000000000000000000000000000000000000000000815250815250905060006104fe61089b565b9050606060005b600d8110156105a5575b8281600d811061052257610521610e54565b5b6020020151861061059257818482600d811061054157610540610e54565b5b6020020151604051602001610557929190610fc8565b60405160208183030381529060405291508281600d811061057b5761057a610e54565b5b60200201518661058b9190610fec565b955061050f565b808061059d90610eb2565b915050610505565b50809350505050919050565b60606000821180156105c45750610fa082105b610603576040517f08c379a00000000000000000000000000000000000000000000000000000000081526004016105fa90610f6c565b60405180910390fd5b606060005b60008054905081101561089157600080828154811061062a57610629610e54565b5b90600052602060002090600202016040518060400160405290816000820154815260200160018201805461065d9061104f565b80601f01602080910402602001604051908101604052809291908181526020018280546106899061104f565b80156106d65780601f106106ab576101008083540402835291602001916106d6565b820191906000526020600020905b8154815290600101906020018083116106b957829003601f168201915b50505050508152505090505b806000015185111561087d576000816020015190506000815185516107079190611080565b67ffffffffffffffff8111156107205761071f610a96565b5b6040519080825280601f01601f1916602001820160405280156107525781602001600182028036833780820191505090505b50905060005b85518110156107d45785818151811061077457610773610e54565b5b602001015160f81c60f81b82828151811061079257610791610e54565b5b60200101907effffffffffffffffffffffffffffffffffffffffffffffffffffffffffffff1916908160001a90535080806107cc90610eb2565b915050610758565b5060005b8251811015610860578281815181106107f4576107f3610e54565b5b602001015160f81c60f81b8282885161080d9190611080565b8151811061081e5761081d610e54565b5b60200101907effffffffffffffffffffffffffffffffffffffffffffffffffffffffffffff1916908160001a905350808061085890610eb2565b9150506107d8565b508094508260000151876108749190610fec565b965050506106e2565b50808061088990610eb2565b915050610608565b5080915050919050565b6108a3610a49565b6108ab610a49565b6103e8816000600d81106108c2576108c1610e54565b5b602002018181525050610384816001600d81106108e2576108e1610e54565b5b6020020181815250506101f4816002600d811061090257610901610e54565b5b602002018181525050610190816003600d811061092257610921610e54565b5b6020020181815250506064816004600d811061094157610940610e54565b5b602002018181525050605a816005600d81106109605761095f610e54565b5b6020020181815250506032816006600d811061097f5761097e610e54565b5b6020020181815250506028816007600d811061099e5761099d610e54565b5b602002018181525050600a816008600d81106109bd576109bc610e54565b5b6020020181815250506009816009600d81106109dc576109db610e54565b5b602002018181525050600581600a600d81106109fb576109fa610e54565b5b602002018181525050600481600b600d8110610a1a57610a19610e54565b5b602002018181525050600181600c600d8110610a3957610a38610e54565b5b6020020181815250508091505090565b604051806101a00160405280600d90602082028036833780820191505090505090565b6000604051905090565b600080fd5b600080fd5b600080fd5b6000601f19601f8301169050919050565b7f4e487b7100000000000000000000000000000000000000000000000000000000600052604160045260246000fd5b610ace82610a85565b810181811067ffffffffffffffff82111715610aed57610aec610a96565b5b80604052505050565b6000610b00610a6c565b9050610b0c8282610ac5565b919050565b600067ffffffffffffffff821115610b2c57610b2b610a96565b5b602082029050602081019050919050565b600080fd5b6000819050919050565b610b5581610b42565b8114610b6057600080fd5b50565b600081359050610b7281610b4c565b92915050565b6000610b8b610b8684610b11565b610af6565b90508083825260208201905060208402830185811115610bae57610bad610b3d565b5b835b81811015610bd75780610bc38882610b63565b845260208401935050602081019050610bb0565b5050509392505050565b600082601f830112610bf657610bf5610a80565b5b8135610c06848260208601610b78565b91505092915050565b600060208284031215610c2557610c24610a76565b5b600082013567ffffffffffffffff811115610c4357610c42610a7b565b5b610c4f84828501610be1565b91505092915050565b600081519050919050565b600082825260208201905092915050565b6000819050602082019050919050565b600081519050919050565b600082825260208201905092915050565b60005b83811015610cbe578082015181840152602081019050610ca3565b60008484015250505050565b6000610cd582610c84565b610cdf8185610c8f565b9350610cef818560208601610ca0565b610cf881610a85565b840191505092915050565b6000610d0f8383610cca565b905092915050565b6000602082019050919050565b6000610d2f82610c58565b610d398185610c63565b935083602082028501610d4b85610c74565b8060005b85811015610d875784840389528151610d688582610d03565b9450610d7383610d17565b925060208a01995050600181019050610d4f565b50829750879550505050505092915050565b60006020820190508181036000830152610db38184610d24565b905092915050565b600060208284031215610dd157610dd0610a76565b5b6000610ddf84828501610b63565b91505092915050565b600082825260208201905092915050565b6000610e0482610c84565b610e0e8185610de8565b9350610e1e818560208601610ca0565b610e2781610a85565b840191505092915050565b60006020820190508181036000830152610e4c8184610df9565b905092915050565b7f4e487b7100000000000000000000000000000000000000000000000000000000600052603260045260246000fd5b7f4e487b7100000000000000000000000000000000000000000000000000000000600052601160045260246000fd5b6000610ebd82610b42565b91507fffffffffffffffffffffffffffffffffffffffffffffffffffffffffffffffff8203610eef57610eee610e83565b5b600182019050919050565b7f4e756d626572206d757374206265206265747765656e203120616e642033393960008201527f3900000000000000000000000000000000000000000000000000000000000000602082015250565b6000610f56602183610de8565b9150610f6182610efa565b604082019050919050565b60006020820190508181036000830152610f8581610f49565b9050919050565b600081905092915050565b6000610fa282610c84565b610fac8185610f8c565b9350610fbc818560208601610ca0565b80840191505092915050565b6000610fd48285610f97565b9150610fe08284610f97565b91508190509392505050565b6000610ff782610b42565b915061100283610b42565b925082820390508181111561101a57611019610e83565b5b92915050565b7f4e487b7100000000000000000000000000000000000000000000000000000000600052602260045260246000fd5b6000600282049050600182168061106757607f821691505b60208210810361107a57611079611020565b5b50919050565b600061108b82610b42565b915061109683610b42565b92508282019050808211156110ae576110ad610e83565b5b9291505056fea26469706673582212201d426a574f583fb3827ed5b9659793722715a145b61b2c0bc27284d9ebaae4f264736f6c63430008130033",
  "linkReferences": {},
  "deployedLinkReferences": {}
}