{"contracts/Voting.sol":{"Voting":{"abi":[{"anonymous":false,"inputs":[{"indexed":true,"internalType":"address","name":"voter","type":"address"},{"indexed":false,"internalType":"string","name":"candidate","type":"string"},{"indexed":false,"internalType":"uint256","name":"newVoteCount","type":"uint256"}],"name":"Voted","type":"event"},{"anonymous":false,"inputs":[{"indexed":true,"internalType":"address","name":"resetBy","type":"address"}],"name":"VotesReset","type":"event"},{"inputs":[{"internalType":"string","name":"","type":"string"}],"name":"candidateVotes","outputs":[{"internalType":"uint256","name":"","type":"uint256"}],"stateMutability":"view","type":"function"},{"inputs":[],"name":"getAllCandidates","outputs":[{"internalType":"string[]","name":"","type":"string[]"}],"stateMutability":"view","type":"function"},{"inputs":[],"name":"getCandidateCount","outputs":[{"internalType":"uint256","name":"","type":"uint256"}],"stateMutability":"view","type":"function"},{"inputs":[{"internalType":"string","name":"candidate","type":"string"}],"name":"getVotes","outputs":[{"internalType":"uint256","name":"","type":"uint256"}],"stateMutability":"view","type":"function"},{"inputs":[],"name":"resetVotes","outputs":[],"stateMutability":"nonpayable","type":"function"},{"inputs":[{"internalType":"string","name":"candidate","type":"string"}],"name":"vote","outputs":[],"stateMutability":"nonpayable","type":"function"}],"evm":{"bytecode":{"linkReferences":{},"object":"608060405234801561001057600080fd5b50610d17806100206000396000f3fe608060405234801561001057600080fd5b50600436106100615760003560e01c8062514d7a146100665780632e6997fe1461009657806330a56347146100b4578063805265e5146100d2578063b9830ff114610102578063fc36e15b1461010c575b600080fd5b610080600480360381019061007b91906105aa565b610128565b60405161008d919061060c565b60405180910390f35b61009e610156565b6040516100ab9190610768565b60405180910390f35b6100bc61022f565b6040516100c9919061060c565b60405180910390f35b6100ec60048036038101906100e791906105aa565b61023c565b6040516100f9919061060c565b60405180910390f35b61010a610263565b005b610126600480360381019061012191906105aa565b61030c565b005b6000818051602081018201805184825260208301602085012081835280955050505050506000915090505481565b60606001805480602002602001604051908101604052809291908181526020016000905b82821015610226578382906000526020600020018054610199906107b9565b80601f01602080910402602001604051908101604052809291908181526020018280546101c5906107b9565b80156102125780601f106101e757610100808354040283529160200191610212565b820191906000526020600020905b8154815290600101906020018083116101f557829003601f168201915b50505050508152602001906001019061017a565b50505050905090565b6000600180549050905090565b6000808260405161024d9190610826565b9081526020016040518091039020549050919050565b60005b6001805490508110156102c6576000806001838154811061028a5761028961083d565b5b906000526020600020016040516102a19190610904565b90815260200160405180910390208190555080806102be9061094a565b915050610266565b503373ffffffffffffffffffffffffffffffffffffffff167f52377ea4d8812f0bb534fc079993e288b4ea73d011a2a368502255052a6b773060405160405180910390a2565b6000815111610350576040517f08c379a0000000000000000000000000000000000000000000000000000000008152600401610347906109ef565b60405180910390fd5b600080826040516103619190610826565b908152602001604051809103902054036103ab576001819080600181540180825580915050600190039060005260206000200160009091909190915090816103a99190610ba6565b505b6000816040516103bb9190610826565b908152602001604051809103902060008154809291906103da9061094a565b91905055503373ffffffffffffffffffffffffffffffffffffffff167f35b4034b2bbe10bb07b21969c986794a6276a531bb155886a9f883bb5c9dc8e8826000846040516104289190610826565b908152602001604051809103902054604051610445929190610cb1565b60405180910390a250565b6000604051905090565b600080fd5b600080fd5b600080fd5b600080fd5b6000601f19601f8301169050919050565b7f4e487b7100000000000000000000000000000000000000000000000000000000600052604160045260246000fd5b6104b78261046e565b810181811067ffffffffffffffff821117156104d6576104d561047f565b5b80604052505050565b60006104e9610450565b90506104f582826104ae565b919050565b600067ffffffffffffffff8211156105155761051461047f565b5b61051e8261046e565b9050602081019050919050565b82818337600083830152505050565b600061054d610548846104fa565b6104df565b90508281526020810184848401111561056957610568610469565b5b61057484828561052b565b509392505050565b600082601f83011261059157610590610464565b5b81356105a184826020860161053a565b91505092915050565b6000602082840312156105c0576105bf61045a565b5b600082013567ffffffffffffffff8111156105de576105dd61045f565b5b6105ea8482850161057c565b91505092915050565b6000819050919050565b610606816105f3565b82525050565b600060208201905061062160008301846105fd565b92915050565b600081519050919050565b600082825260208201905092915050565b6000819050602082019050919050565b600081519050919050565b600082825260208201905092915050565b60005b8381101561068d578082015181840152602081019050610672565b60008484015250505050565b60006106a482610653565b6106ae818561065e565b93506106be81856020860161066f565b6106c78161046e565b840191505092915050565b60006106de8383610699565b905092915050565b6000602082019050919050565b60006106fe82610627565b6107088185610632565b93508360208202850161071a85610643565b8060005b85811015610756578484038952815161073785826106d2565b9450610742836106e6565b925060208a0199505060018101905061071e565b50829750879550505050505092915050565b6000602082019050818103600083015261078281846106f3565b905092915050565b7f4e487b7100000000000000000000000000000000000000000000000000000000600052602260045260246000fd5b600060028204905060018216806107d157607f821691505b6020821081036107e4576107e361078a565b5b50919050565b600081905092915050565b600061080082610653565b61080a81856107ea565b935061081a81856020860161066f565b80840191505092915050565b600061083282846107f5565b915081905092915050565b7f4e487b7100000000000000000000000000000000000000000000000000000000600052603260045260246000fd5b60008190508160005260206000209050919050565b6000815461088e816107b9565b61089881866107ea565b945060018216600081146108b357600181146108c8576108fb565b60ff19831686528115158202860193506108fb565b6108d18561086c565b60005b838110156108f3578154818901526001820191506020810190506108d4565b838801955050505b50505092915050565b60006109108284610881565b915081905092915050565b7f4e487b7100000000000000000000000000000000000000000000000000000000600052601160045260246000fd5b6000610955826105f3565b91507fffffffffffffffffffffffffffffffffffffffffffffffffffffffffffffffff82036109875761098661091b565b5b600182019050919050565b600082825260208201905092915050565b7f43616e646964617465206e616d652063616e6e6f7420626520656d7074790000600082015250565b60006109d9601e83610992565b91506109e4826109a3565b602082019050919050565b60006020820190508181036000830152610a08816109cc565b9050919050565b60006020601f8301049050919050565b600082821b905092915050565b600060088302610a5c7fffffffffffffffffffffffffffffffffffffffffffffffffffffffffffffffff82610a1f565b610a668683610a1f565b95508019841693508086168417925050509392505050565b6000819050919050565b6000610aa3610a9e610a99846105f3565b610a7e565b6105f3565b9050919050565b6000819050919050565b610abd83610a88565b610ad1610ac982610aaa565b848454610a2c565b825550505050565b600090565b610ae6610ad9565b610af1818484610ab4565b505050565b5b81811015610b1557610b0a600082610ade565b600181019050610af7565b5050565b601f821115610b5a57610b2b8161086c565b610b3484610a0f565b81016020851015610b43578190505b610b57610b4f85610a0f565b830182610af6565b50505b505050565b600082821c905092915050565b6000610b7d60001984600802610b5f565b1980831691505092915050565b6000610b968383610b6c565b9150826002028217905092915050565b610baf82610653565b67ffffffffffffffff811115610bc857610bc761047f565b5b610bd282546107b9565b610bdd828285610b19565b600060209050601f831160018114610c105760008415610bfe578287015190505b610c088582610b8a565b865550610c70565b601f198416610c1e8661086c565b60005b82811015610c4657848901518255600182019150602085019450602081019050610c21565b86831015610c635784890151610c5f601f891682610b6c565b8355505b6001600288020188555050505b505050505050565b6000610c8382610653565b610c8d8185610992565b9350610c9d81856020860161066f565b610ca68161046e565b840191505092915050565b60006040820190508181036000830152610ccb8185610c78565b9050610cda60208301846105fd565b939250505056fea2646970667358221220c3a7f3db853fda00a2e72087ae42b1b923ce2d9303026a9ea8973de53177a95d64736f6c63430008130033","opcodes":"PUSH1 0x80 PUSH1 0x40 MSTORE CALLVALUE DUP1 ISZERO PUSH2 0x10 JUMPI PUSH1 0x0 DUP1 REVERT JUMPDEST POP PUSH2 0xD17 DUP1 PUSH2 0x20 PUSH1 0x0 CODECOPY PUSH1 0x0 RETURN INVALID PUSH1 0x80 PUSH1 0x40 MSTORE CALLVALUE DUP1 ISZERO PUSH2 0x10 JUMPI PUSH1 0x0 DUP1 REVERT JUMPDEST POP PUSH1 0x4 CALLDATASIZE LT PUSH2 0x61 JUMPI PUSH1 0x0 CALLDATALOAD PUSH1 0xE0 SHR DUP1 PUSH3 0x514D7A EQ PUSH2 0x66 JUMPI DUP1 PUSH4 0x2E6997FE EQ PUSH2 0x96 JUMPI DUP1 PUSH4 0x30A56347 EQ PUSH2 0xB4 JUMPI DUP1 PUSH4 0x805265E5 EQ PUSH2 0xD2 JUMPI DUP1 PUSH4 0xB9830FF1 EQ PUSH2 0x102 JUMPI DUP1 PUSH4 0xFC36E15B EQ PUSH2 0x10C JUMPI JUMPDEST PUSH1 0x0 DUP1 REVERT JUMPDEST PUSH2 0x80 PUSH1 0x4 DUP1 CALLDATASIZE SUB DUP2 ADD SWAP1 PUSH2 0x7B SWAP2 SWAP1 PUSH2 0x5AA JUMP JUMPDEST PUSH2 0x128 JUMP JUMPDEST PUSH1 0x40 MLOAD PUSH2 0x8D SWAP2 SWAP1 PUSH2 0x60C JUMP JUMPDEST PUSH1 0x40 MLOAD DUP1 SWAP2 SUB SWAP1 RETURN JUMPDEST PUSH2 0x9E PUSH2 0x156 JUMP JUMPDEST PUSH1 0x40 MLOAD PUSH2 0xAB SWAP2 SWAP1 PUSH2 0x768 JUMP JUMPDEST PUSH1 0x40 MLOAD DUP1 SWAP2 SUB SWAP1 RETURN JUMPDEST PUSH2 0xBC PUSH2 0x22F JUMP JUMPDEST PUSH1 0x40 MLOAD PUSH2 0xC9 SWAP2 SWAP1 PUSH2 0x60C JUMP JUMPDEST PUSH1 0x40 MLOAD DUP1 SWAP2 SUB SWAP1 RETURN JUMPDEST PUSH2 0xEC PUSH1 0x4 DUP1 CALLDATASIZE SUB DUP2 ADD SWAP1 PUSH2 0xE7 SWAP2 SWAP1 PUSH2 0x5AA JUMP JUMPDEST PUSH2 0x23C JUMP JUMPDEST PUSH1 0x40 MLOAD PUSH2 0xF9 SWAP2 SWAP1 PUSH2 0x60C JUMP JUMPDEST PUSH1 0x40 MLOAD DUP1 SWAP2 SUB SWAP1 RETURN JUMPDEST PUSH2 0x10A PUSH2 0x263 JUMP JUMPDEST STOP JUMPDEST PUSH2 0x126 PUSH1 0x4 DUP1 CALLDATASIZE SUB DUP2 ADD SWAP1 PUSH2 0x121 SWAP2 SWAP1 PUSH2 0x5AA JUMP JUMPDEST PUSH2 0x30C JUMP JUMPDEST STOP JUMPDEST PUSH1 0x0 DUP2 DUP1 MLOAD PUSH1 0x20 DUP2 ADD DUP3 ADD DUP1 MLOAD DUP5 DUP3 MSTORE PUSH1 0x20 DUP4 ADD PUSH1 0x20 DUP6 ADD KECCAK256 DUP2 DUP4 MSTORE DUP1 SWAP6 POP POP POP POP POP POP PUSH1 0x0 SWAP2 POP SWAP1 POP SLOAD DUP2 JUMP JUMPDEST PUSH1 0x60 PUSH1 0x1 DUP1 SLOAD DUP1 PUSH1 0x20 MUL PUSH1 0x20 ADD PUSH1 0x40 MLOAD SWAP1 DUP2 ADD PUSH1 0x40 MSTORE DUP1 SWAP3 SWAP2 SWAP1 DUP2 DUP2 MSTORE PUSH1 0x20 ADD PUSH1 0x0 SWAP1 JUMPDEST DUP3 DUP3 LT ISZERO PUSH2 0x226 JUMPI DUP4 DUP3 SWAP1 PUSH1 0x0 MSTORE PUSH1 0x20 PUSH1 0x0 KECCAK256 ADD DUP1 SLOAD PUSH2 0x199 SWAP1 PUSH2 0x7B9 JUMP JUMPDEST DUP1 PUSH1 0x1F ADD PUSH1 0x20 DUP1 SWAP2 DIV MUL PUSH1 0x20 ADD PUSH1 0x40 MLOAD SWAP1 DUP2 ADD PUSH1 0x40 MSTORE DUP1 SWAP3 SWAP2 SWAP1 DUP2 DUP2 MSTORE PUSH1 0x20 ADD DUP3 DUP1 SLOAD PUSH2 0x1C5 SWAP1 PUSH2 0x7B9 JUMP JUMPDEST DUP1 ISZERO PUSH2 0x212 JUMPI DUP1 PUSH1 0x1F LT PUSH2 0x1E7 JUMPI PUSH2 0x100 DUP1 DUP4 SLOAD DIV MUL DUP4 MSTORE SWAP2 PUSH1 0x20 ADD SWAP2 PUSH2 0x212 JUMP JUMPDEST DUP3 ADD SWAP2 SWAP1 PUSH1 0x0 MSTORE PUSH1 0x20 PUSH1 0x0 KECCAK256 SWAP1 JUMPDEST DUP2 SLOAD DUP2 MSTORE SWAP1 PUSH1 0x1 ADD SWAP1 PUSH1 0x20 ADD DUP1 DUP4 GT PUSH2 0x1F5 JUMPI DUP3 SWAP1 SUB PUSH1 0x1F AND DUP3 ADD SWAP2 JUMPDEST POP POP POP POP POP DUP2 MSTORE PUSH1 0x20 ADD SWAP1 PUSH1 0x1 ADD SWAP1 PUSH2 0x17A JUMP JUMPDEST POP POP POP POP SWAP1 POP SWAP1 JUMP JUMPDEST PUSH1 0x0 PUSH1 0x1 DUP1 SLOAD SWAP1 POP SWAP1 POP SWAP1 JUMP JUMPDEST PUSH1 0x0 DUP1 DUP3 PUSH1 0x40 MLOAD PUSH2 0x24D SWAP2 SWAP1 PUSH2 0x826 JUMP JUMPDEST SWAP1 DUP2 MSTORE PUSH1 0x20 ADD PUSH1 0x40 MLOAD DUP1 SWAP2 SUB SWAP1 KECCAK256 SLOAD SWAP1 POP SWAP2 SWAP1 POP JUMP JUMPDEST PUSH1 0x0 JUMPDEST PUSH1 0x1 DUP1 SLOAD SWAP1 POP DUP2 LT ISZERO PUSH2 0x2C6 JUMPI PUSH1 0x0 DUP1 PUSH1 0x1 DUP4 DUP2 SLOAD DUP2 LT PUSH2 0x28A JUMPI PUSH2 0x289 PUSH2 0x83D JUMP JUMPDEST JUMPDEST SWAP1 PUSH1 0x0 MSTORE PUSH1 0x20 PUSH1 0x0 KECCAK256 ADD PUSH1 0x40 MLOAD PUSH2 0x2A1 SWAP2 SWAP1 PUSH2 0x904 JUMP JUMPDEST SWAP1 DUP2 MSTORE PUSH1 0x20 ADD PUSH1 0x40 MLOAD DUP1 SWAP2 SUB SWAP1 KECCAK256 DUP2 SWAP1 SSTORE POP DUP1 DUP1 PUSH2 0x2BE SWAP1 PUSH2 0x94A JUMP JUMPDEST SWAP2 POP POP PUSH2 0x266 JUMP JUMPDEST POP CALLER PUSH20 0xFFFFFFFFFFFFFFFFFFFFFFFFFFFFFFFFFFFFFFFF AND PUSH32 0x52377EA4D8812F0BB534FC079993E288B4EA73D011A2A368502255052A6B7730 PUSH1 0x40 MLOAD PUSH1 0x40 MLOAD DUP1 SWAP2 SUB SWAP1 LOG2 JUMP JUMPDEST PUSH1 0x0 DUP2 MLOAD GT PUSH2 0x350 JUMPI PUSH1 0x40 MLOAD PUSH32 0x8C379A000000000000000000000000000000000000000000000000000000000 DUP2 MSTORE PUSH1 0x4 ADD PUSH2 0x347 SWAP1 PUSH2 0x9EF JUMP JUMPDEST PUSH1 0x40 MLOAD DUP1 SWAP2 SUB SWAP1 REVERT JUMPDEST PUSH1 0x0 DUP1 DUP3 PUSH1 0x40 MLOAD PUSH2 0x361 SWAP2 SWAP1 PUSH2 0x826 JUMP JUMPDEST SWAP1 DUP2 MSTORE PUSH1 0x20 ADD PUSH1 0x40 MLOAD DUP1 SWAP2 SUB SWAP1 KECCAK256 SLOAD SUB PUSH2 0x3AB JUMPI PUSH1 0x1 DUP2 SWAP1 DUP1 PUSH1 0x1 DUP2 SLOAD ADD DUP1 DUP3 SSTORE DUP1 SWAP2 POP POP PUSH1 0x1 SWAP1 SUB SWAP1 PUSH1 0x0 MSTORE PUSH1 0x20 PUSH1 0x0 KECCAK256 ADD PUSH1 0x0 SWAP1 SWAP2 SWAP1 SWAP2 SWAP1 SWAP2 POP SWAP1 DUP2 PUSH2 0x3A9 SWAP2 SWAP1 PUSH2 0xBA6 JUMP JUMPDEST POP JUMPDEST PUSH1 0x0 DUP2 PUSH1 0x40 MLOAD PUSH2 0x3BB SWAP2 SWAP1 PUSH2 0x826 JUMP JUMPDEST SWAP1 DUP2 MSTORE PUSH1 0x20 ADD PUSH1 0x40 MLOAD DUP1 SWAP2 SUB SWAP1 KECCAK256 PUSH1 0x0 DUP2 SLOAD DUP1 SWAP3 SWAP2 SWAP1 PUSH2 0x3DA SWAP1 PUSH2 0x94A JUMP JUMPDEST SWAP2 SWAP1 POP SSTORE POP CALLER PUSH20 0xFFFFFFFFFFFFFFFFFFFFFFFFFFFFFFFFFFFFFFFF AND PUSH32 0x35B4034B2BBE10BB07B21969C986794A6276A531BB155886A9F883BB5C9DC8E8 DUP3 PUSH1 0x0 DUP5 PUSH1 0x40 MLOAD PUSH2 0x428 SWAP2 SWAP1 PUSH2 0x826 JUMP JUMPDEST SWAP1 DUP2 MSTORE PUSH1 0x20 ADD PUSH1 0x40 MLOAD DUP1 SWAP2 SUB SWAP1 KECCAK256 SLOAD PUSH1 0x40 MLOAD PUSH2 0x445 SWAP3 SWAP2 SWAP1 PUSH2 0xCB1 JUMP JUMPDEST PUSH1 0x40 MLOAD DUP1 SWAP2 SUB SWAP1 LOG2 POP JUMP JUMPDEST PUSH1 0x0 PUSH1 0x40 MLOAD SWAP1 POP SWAP1 JUMP JUMPDEST PUSH1 0x0 DUP1 REVERT JUMPDEST PUSH1 0x0 DUP1 REVERT JUMPDEST PUSH1 0x0 DUP1 REVERT JUMPDEST PUSH1 0x0 DUP1 REVERT JUMPDEST PUSH1 0x0 PUSH1 0x1F NOT PUSH1 0x1F DUP4 ADD AND SWAP1 POP SWAP2 SWAP1 POP JUMP JUMPDEST PUSH32 0x4E487B7100000000000000000000000000000000000000000000000000000000 PUSH1 0x0 MSTORE PUSH1 0x41 PUSH1 0x4 MSTORE PUSH1 0x24 PUSH1 0x0 REVERT JUMPDEST PUSH2 0x4B7 DUP3 PUSH2 0x46E JUMP JUMPDEST DUP2 ADD DUP2 DUP2 LT PUSH8 0xFFFFFFFFFFFFFFFF DUP3 GT OR ISZERO PUSH2 0x4D6 JUMPI PUSH2 0x4D5 PUSH2 0x47F JUMP JUMPDEST JUMPDEST DUP1 PUSH1 0x40 MSTORE POP POP POP JUMP JUMPDEST PUSH1 0x0 PUSH2 0x4E9 PUSH2 0x450 JUMP JUMPDEST SWAP1 POP PUSH2 0x4F5 DUP3 DUP3 PUSH2 0x4AE JUMP JUMPDEST SWAP2 SWAP1 POP JUMP JUMPDEST PUSH1 0x0 PUSH8 0xFFFFFFFFFFFFFFFF DUP3 GT ISZERO PUSH2 0x515 JUMPI PUSH2 0x514 PUSH2 0x47F JUMP JUMPDEST JUMPDEST PUSH2 0x51E DUP3 PUSH2 0x46E JUMP JUMPDEST SWAP1 POP PUSH1 0x20 DUP2 ADD SWAP1 POP SWAP2 SWAP1 POP JUMP JUMPDEST DUP3 DUP2 DUP4 CALLDATACOPY PUSH1 0x0 DUP4 DUP4 ADD MSTORE POP POP POP JUMP JUMPDEST PUSH1 0x0 PUSH2 0x54D PUSH2 0x548 DUP5 PUSH2 0x4FA JUMP JUMPDEST PUSH2 0x4DF JUMP JUMPDEST SWAP1 POP DUP3 DUP2 MSTORE PUSH1 0x20 DUP2 ADD DUP5 DUP5 DUP5 ADD GT ISZERO PUSH2 0x569 JUMPI PUSH2 0x568 PUSH2 0x469 JUMP JUMPDEST JUMPDEST PUSH2 0x574 DUP5 DUP3 DUP6 PUSH2 0x52B JUMP JUMPDEST POP SWAP4 SWAP3 POP POP POP JUMP JUMPDEST PUSH1 0x0 DUP3 PUSH1 0x1F DUP4 ADD SLT PUSH2 0x591 JUMPI PUSH2 0x590 PUSH2 0x464 JUMP JUMPDEST JUMPDEST DUP2 CALLDATALOAD PUSH2 0x5A1 DUP5 DUP3 PUSH1 0x20 DUP7 ADD PUSH2 0x53A JUMP JUMPDEST SWAP2 POP POP SWAP3 SWAP2 POP POP JUMP JUMPDEST PUSH1 0x0 PUSH1 0x20 DUP3 DUP5 SUB SLT ISZERO PUSH2 0x5C0 JUMPI PUSH2 0x5BF PUSH2 0x45A JUMP JUMPDEST JUMPDEST PUSH1 0x0 DUP3 ADD CALLDATALOAD PUSH8 0xFFFFFFFFFFFFFFFF DUP2 GT ISZERO PUSH2 0x5DE JUMPI PUSH2 0x5DD PUSH2 0x45F JUMP JUMPDEST JUMPDEST PUSH2 0x5EA DUP5 DUP3 DUP6 ADD PUSH2 0x57C JUMP JUMPDEST SWAP2 POP POP SWAP3 SWAP2 POP POP JUMP JUMPDEST PUSH1 0x0 DUP2 SWAP1 POP SWAP2 SWAP1 POP JUMP JUMPDEST PUSH2 0x606 DUP2 PUSH2 0x5F3 JUMP JUMPDEST DUP3 MSTORE POP POP JUMP JUMPDEST PUSH1 0x0 PUSH1 0x20 DUP3 ADD SWAP1 POP PUSH2 0x621 PUSH1 0x0 DUP4 ADD DUP5 PUSH2 0x5FD JUMP JUMPDEST SWAP3 SWAP2 POP POP JUMP JUMPDEST PUSH1 0x0 DUP2 MLOAD SWAP1 POP SWAP2 SWAP1 POP JUMP JUMPDEST PUSH1 0x0 DUP3 DUP3 MSTORE PUSH1 0x20 DUP3 ADD SWAP1 POP SWAP3 SWAP2 POP POP JUMP JUMPDEST PUSH1 0x0 DUP2 SWAP1 POP PUSH1 0x20 DUP3 ADD SWAP1 POP SWAP2 SWAP1 POP JUMP JUMPDEST PUSH1 0x0 DUP2 MLOAD SWAP1 POP SWAP2 SWAP1 POP JUMP JUMPDEST PUSH1 0x0 DUP3 DUP3 MSTORE PUSH1 0x20 DUP3 ADD SWAP1 POP SWAP3 SWAP2 POP POP JUMP JUMPDEST PUSH1 0x0 JUMPDEST DUP4 DUP2 LT ISZERO PUSH2 0x68D JUMPI DUP1 DUP3 ADD MLOAD DUP2 DUP5 ADD MSTORE PUSH1 0x20 DUP2 ADD SWAP1 POP PUSH2 0x672 JUMP JUMPDEST PUSH1 0x0 DUP5 DUP5 ADD MSTORE POP POP POP POP JUMP JUMPDEST PUSH1 0x0 PUSH2 0x6A4 DUP3 PUSH2 0x653 JUMP JUMPDEST PUSH2 0x6AE DUP2 DUP6 PUSH2 0x65E JUMP JUMPDEST SWAP4 POP PUSH2 0x6BE DUP2 DUP6 PUSH1 0x20 DUP7 ADD PUSH2 0x66F JUMP JUMPDEST PUSH2 0x6C7 DUP2 PUSH2 0x46E JUMP JUMPDEST DUP5 ADD SWAP2 POP POP SWAP3 SWAP2 POP POP JUMP JUMPDEST PUSH1 0x0 PUSH2 0x6DE DUP4 DUP4 PUSH2 0x699 JUMP JUMPDEST SWAP1 POP SWAP3 SWAP2 POP POP JUMP JUMPDEST PUSH1 0x0 PUSH1 0x20 DUP3 ADD SWAP1 POP SWAP2 SWAP1 POP JUMP JUMPDEST PUSH1 0x0 PUSH2 0x6FE DUP3 PUSH2 0x627 JUMP JUMPDEST PUSH2 0x708 DUP2 DUP6 PUSH2 0x632 JUMP JUMPDEST SWAP4 POP DUP4 PUSH1 0x20 DUP3 MUL DUP6 ADD PUSH2 0x71A DUP6 PUSH2 0x643 JUMP JUMPDEST DUP1 PUSH1 0x0 JUMPDEST DUP6 DUP2 LT ISZERO PUSH2 0x756 JUMPI DUP5 DUP5 SUB DUP10 MSTORE DUP2 MLOAD PUSH2 0x737 DUP6 DUP3 PUSH2 0x6D2 JUMP JUMPDEST SWAP5 POP PUSH2 0x742 DUP4 PUSH2 0x6E6 JUMP JUMPDEST SWAP3 POP PUSH1 0x20 DUP11 ADD SWAP10 POP POP PUSH1 0x1 DUP2 ADD SWAP1 POP PUSH2 0x71E JUMP JUMPDEST POP DUP3 SWAP8 POP DUP8 SWAP6 POP POP POP POP POP POP SWAP3 SWAP2 POP POP JUMP JUMPDEST PUSH1 0x0 PUSH1 0x20 DUP3 ADD SWAP1 POP DUP2 DUP2 SUB PUSH1 0x0 DUP4 ADD MSTORE PUSH2 0x782 DUP2 DUP5 PUSH2 0x6F3 JUMP JUMPDEST SWAP1 POP SWAP3 SWAP2 POP POP JUMP JUMPDEST PUSH32 0x4E487B7100000000000000000000000000000000000000000000000000000000 PUSH1 0x0 MSTORE PUSH1 0x22 PUSH1 0x4 MSTORE PUSH1 0x24 PUSH1 0x0 REVERT JUMPDEST PUSH1 0x0 PUSH1 0x2 DUP3 DIV SWAP1 POP PUSH1 0x1 DUP3 AND DUP1 PUSH2 0x7D1 JUMPI PUSH1 0x7F DUP3 AND SWAP2 POP JUMPDEST PUSH1 0x20 DUP3 LT DUP2 SUB PUSH2 0x7E4 JUMPI PUSH2 0x7E3 PUSH2 0x78A JUMP JUMPDEST JUMPDEST POP SWAP2 SWAP1 POP JUMP JUMPDEST PUSH1 0x0 DUP2 SWAP1 POP SWAP3 SWAP2 POP POP JUMP JUMPDEST PUSH1 0x0 PUSH2 0x800 DUP3 PUSH2 0x653 JUMP JUMPDEST PUSH2 0x80A DUP2 DUP6 PUSH2 0x7EA JUMP JUMPDEST SWAP4 POP PUSH2 0x81A DUP2 DUP6 PUSH1 0x20 DUP7 ADD PUSH2 0x66F JUMP JUMPDEST DUP1 DUP5 ADD SWAP2 POP POP SWAP3 SWAP2 POP POP JUMP JUMPDEST PUSH1 0x0 PUSH2 0x832 DUP3 DUP5 PUSH2 0x7F5 JUMP JUMPDEST SWAP2 POP DUP2 SWAP1 POP SWAP3 SWAP2 POP POP JUMP JUMPDEST PUSH32 0x4E487B7100000000000000000000000000000000000000000000000000000000 PUSH1 0x0 MSTORE PUSH1 0x32 PUSH1 0x4 MSTORE PUSH1 0x24 PUSH1 0x0 REVERT JUMPDEST PUSH1 0x0 DUP2 SWAP1 POP DUP2 PUSH1 0x0 MSTORE PUSH1 0x20 PUSH1 0x0 KECCAK256 SWAP1 POP SWAP2 SWAP1 POP JUMP JUMPDEST PUSH1 0x0 DUP2 SLOAD PUSH2 0x88E DUP2 PUSH2 0x7B9 JUMP JUMPDEST PUSH2 0x898 DUP2 DUP7 PUSH2 0x7EA JUMP JUMPDEST SWAP5 POP PUSH1 0x1 DUP3 AND PUSH1 0x0 DUP2 EQ PUSH2 0x8B3 JUMPI PUSH1 0x1 DUP2 EQ PUSH2 0x8C8 JUMPI PUSH2 0x8FB JUMP JUMPDEST PUSH1 0xFF NOT DUP4 AND DUP7 MSTORE DUP2 ISZERO ISZERO DUP3 MUL DUP7 ADD SWAP4 POP PUSH2 0x8FB JUMP JUMPDEST PUSH2 0x8D1 DUP6 PUSH2 0x86C JUMP JUMPDEST PUSH1 0x0 JUMPDEST DUP4 DUP2 LT ISZERO PUSH2 0x8F3 JUMPI DUP2 SLOAD DUP2 DUP10 ADD MSTORE PUSH1 0x1 DUP3 ADD SWAP2 POP PUSH1 0x20 DUP2 ADD SWAP1 POP PUSH2 0x8D4 JUMP JUMPDEST DUP4 DUP9 ADD SWAP6 POP POP POP JUMPDEST POP POP POP SWAP3 SWAP2 POP POP JUMP JUMPDEST PUSH1 0x0 PUSH2 0x910 DUP3 DUP5 PUSH2 0x881 JUMP JUMPDEST SWAP2 POP DUP2 SWAP1 POP SWAP3 SWAP2 POP POP JUMP JUMPDEST PUSH32 0x4E487B7100000000000000000000000000000000000000000000000000000000 PUSH1 0x0 MSTORE PUSH1 0x11 PUSH1 0x4 MSTORE PUSH1 0x24 PUSH1 0x0 REVERT JUMPDEST PUSH1 0x0 PUSH2 0x955 DUP3 PUSH2 0x5F3 JUMP JUMPDEST SWAP2 POP PUSH32 0xFFFFFFFFFFFFFFFFFFFFFFFFFFFFFFFFFFFFFFFFFFFFFFFFFFFFFFFFFFFFFFFF DUP3 SUB PUSH2 0x987 JUMPI PUSH2 0x986 PUSH2 0x91B JUMP JUMPDEST JUMPDEST PUSH1 0x1 DUP3 ADD SWAP1 POP SWAP2 SWAP1 POP JUMP JUMPDEST PUSH1 0x0 DUP3 DUP3 MSTORE PUSH1 0x20 DUP3 ADD SWAP1 POP SWAP3 SWAP2 POP POP JUMP JUMPDEST PUSH32 0x43616E646964617465206E616D652063616E6E6F7420626520656D7074790000 PUSH1 0x0 DUP3 ADD MSTORE POP JUMP JUMPDEST PUSH1 0x0 PUSH2 0x9D9 PUSH1 0x1E DUP4 PUSH2 0x992 JUMP JUMPDEST SWAP2 POP PUSH2 0x9E4 DUP3 PUSH2 0x9A3 JUMP JUMPDEST PUSH1 0x20 DUP3 ADD SWAP1 POP SWAP2 SWAP1 POP JUMP JUMPDEST PUSH1 0x0 PUSH1 0x20 DUP3 ADD SWAP1 POP DUP2 DUP2 SUB PUSH1 0x0 DUP4 ADD MSTORE PUSH2 0xA08 DUP2 PUSH2 0x9CC JUMP JUMPDEST SWAP1 POP SWAP2 SWAP1 POP JUMP JUMPDEST PUSH1 0x0 PUSH1 0x20 PUSH1 0x1F DUP4 ADD DIV SWAP1 POP SWAP2 SWAP1 POP JUMP JUMPDEST PUSH1 0x0 DUP3 DUP3 SHL SWAP1 POP SWAP3 SWAP2 POP POP JUMP JUMPDEST PUSH1 0x0 PUSH1 0x8 DUP4 MUL PUSH2 0xA5C PUSH32 0xFFFFFFFFFFFFFFFFFFFFFFFFFFFFFFFFFFFFFFFFFFFFFFFFFFFFFFFFFFFFFFFF DUP3 PUSH2 0xA1F JUMP JUMPDEST PUSH2 0xA66 DUP7 DUP4 PUSH2 0xA1F JUMP JUMPDEST SWAP6 POP DUP1 NOT DUP5 AND SWAP4 POP DUP1 DUP7 AND DUP5 OR SWAP3 POP POP POP SWAP4 SWAP3 POP POP POP JUMP JUMPDEST PUSH1 0x0 DUP2 SWAP1 POP SWAP2 SWAP1 POP JUMP JUMPDEST PUSH1 0x0 PUSH2 0xAA3 PUSH2 0xA9E PUSH2 0xA99 DUP5 PUSH2 0x5F3 JUMP JUMPDEST PUSH2 0xA7E JUMP JUMPDEST PUSH2 0x5F3 JUMP JUMPDEST SWAP1 POP SWAP2 SWAP1 POP JUMP JUMPDEST PUSH1 0x0 DUP2 SWAP1 POP SWAP2 SWAP1 POP JUMP JUMPDEST PUSH2 0xABD DUP4 PUSH2 0xA88 JUMP JUMPDEST PUSH2 0xAD1 PUSH2 0xAC9 DUP3 PUSH2 0xAAA JUMP JUMPDEST DUP5 DUP5 SLOAD PUSH2 0xA2C JUMP JUMPDEST DUP3 SSTORE POP POP POP POP JUMP JUMPDEST PUSH1 0x0 SWAP1 JUMP JUMPDEST PUSH2 0xAE6 PUSH2 0xAD9 JUMP JUMPDEST PUSH2 0xAF1 DUP2 DUP5 DUP5 PUSH2 0xAB4 JUMP JUMPDEST POP POP POP JUMP JUMPDEST JUMPDEST DUP2 DUP2 LT ISZERO PUSH2 0xB15 JUMPI PUSH2 0xB0A PUSH1 0x0 DUP3 PUSH2 0xADE JUMP JUMPDEST PUSH1 0x1 DUP2 ADD SWAP1 POP PUSH2 0xAF7 JUMP JUMPDEST POP POP JUMP JUMPDEST PUSH1 0x1F DUP3 GT ISZERO PUSH2 0xB5A JUMPI PUSH2 0xB2B DUP2 PUSH2 0x86C JUMP JUMPDEST PUSH2 0xB34 DUP5 PUSH2 0xA0F JUMP JUMPDEST DUP2 ADD PUSH1 0x20 DUP6 LT ISZERO PUSH2 0xB43 JUMPI DUP2 SWAP1 POP JUMPDEST PUSH2 0xB57 PUSH2 0xB4F DUP6 PUSH2 0xA0F JUMP JUMPDEST DUP4 ADD DUP3 PUSH2 0xAF6 JUMP JUMPDEST POP POP JUMPDEST POP POP POP JUMP JUMPDEST PUSH1 0x0 DUP3 DUP3 SHR SWAP1 POP SWAP3 SWAP2 POP POP JUMP JUMPDEST PUSH1 0x0 PUSH2 0xB7D PUSH1 0x0 NOT DUP5 PUSH1 0x8 MUL PUSH2 0xB5F JUMP JUMPDEST NOT DUP1 DUP4 AND SWAP2 POP POP SWAP3 SWAP2 POP POP JUMP JUMPDEST PUSH1 0x0 PUSH2 0xB96 DUP4 DUP4 PUSH2 0xB6C JUMP JUMPDEST SWAP2 POP DUP3 PUSH1 0x2 MUL DUP3 OR SWAP1 POP SWAP3 SWAP2 POP POP JUMP JUMPDEST PUSH2 0xBAF DUP3 PUSH2 0x653 JUMP JUMPDEST PUSH8 0xFFFFFFFFFFFFFFFF DUP2 GT ISZERO PUSH2 0xBC8 JUMPI PUSH2 0xBC7 PUSH2 0x47F JUMP JUMPDEST JUMPDEST PUSH2 0xBD2 DUP3 SLOAD PUSH2 0x7B9 JUMP JUMPDEST PUSH2 0xBDD DUP3 DUP3 DUP6 PUSH2 0xB19 JUMP JUMPDEST PUSH1 0x0 PUSH1 0x20 SWAP1 POP PUSH1 0x1F DUP4 GT PUSH1 0x1 DUP2 EQ PUSH2 0xC10 JUMPI PUSH1 0x0 DUP5 ISZERO PUSH2 0xBFE JUMPI DUP3 DUP8 ADD MLOAD SWAP1 POP JUMPDEST PUSH2 0xC08 DUP6 DUP3 PUSH2 0xB8A JUMP JUMPDEST DUP7 SSTORE POP PUSH2 0xC70 JUMP JUMPDEST PUSH1 0x1F NOT DUP5 AND PUSH2 0xC1E DUP7 PUSH2 0x86C JUMP JUMPDEST PUSH1 0x0 JUMPDEST DUP3 DUP2 LT ISZERO PUSH2 0xC46 JUMPI DUP5 DUP10 ADD MLOAD DUP3 SSTORE PUSH1 0x1 DUP3 ADD SWAP2 POP PUSH1 0x20 DUP6 ADD SWAP5 POP PUSH1 0x20 DUP2 ADD SWAP1 POP PUSH2 0xC21 JUMP JUMPDEST DUP7 DUP4 LT ISZERO PUSH2 0xC63 JUMPI DUP5 DUP10 ADD MLOAD PUSH2 0xC5F PUSH1 0x1F DUP10 AND DUP3 PUSH2 0xB6C JUMP JUMPDEST DUP4 SSTORE POP JUMPDEST PUSH1 0x1 PUSH1 0x2 DUP9 MUL ADD DUP9 SSTORE POP POP POP JUMPDEST POP POP POP POP POP POP JUMP JUMPDEST PUSH1 0x0 PUSH2 0xC83 DUP3 PUSH2 0x653 JUMP JUMPDEST PUSH2 0xC8D DUP2 DUP6 PUSH2 0x992 JUMP JUMPDEST SWAP4 POP PUSH2 0xC9D DUP2 DUP6 PUSH1 0x20 DUP7 ADD PUSH2 0x66F JUMP JUMPDEST PUSH2 0xCA6 DUP2 PUSH2 0x46E JUMP JUMPDEST DUP5 ADD SWAP2 POP POP SWAP3 SWAP2 POP POP JUMP JUMPDEST PUSH1 0x0 PUSH1 0x40 DUP3 ADD SWAP1 POP DUP2 DUP2 SUB PUSH1 0x0 DUP4 ADD MSTORE PUSH2 0xCCB DUP2 DUP6 PUSH2 0xC78 JUMP JUMPDEST SWAP1 POP PUSH2 0xCDA PUSH1 0x20 DUP4 ADD DUP5 PUSH2 0x5FD JUMP JUMPDEST SWAP4 SWAP3 POP POP POP JUMP INVALID LOG2 PUSH5 0x6970667358 0x22 SLT KECCAK256 0xC3 0xA7 RETURN 0xDB DUP6 EXTCODEHASH 0xDA STOP LOG2 0xE7 KECCAK256 DUP8 0xAE TIMESTAMP 0xB1 0xB9 0x23 0xCE 0x2D SWAP4 SUB MUL PUSH11 0x9EA8973DE53177A95D6473 PUSH16 0x6C634300081300330000000000000000 "},"methodIdentifiers":{"candidateVotes(string)":"00514d7a","getAllCandidates()":"2e6997fe","getCandidateCount()":"30a56347","getVotes(string)":"805265e5","resetVotes()":"b9830ff1","vote(string)":"fc36e15b"}}}}}