{"contracts/RomanToInt.sol":{"RomanToIntCase":{"abi":[{"inputs":[{"internalType":"string","name":"s","type":"string"}],"name":"RomanToInt","outputs":[{"internalType":"uint256","name":"","type":"uint256"}],"stateMutability":"pure","type":"function"},{"inputs":[{"internalType":"string[]","name":"romans","type":"string[]"}],"name":"batchRomanToInt","outputs":[{"internalType":"uint256[]","name":"","type":"uint256[]"}],"stateMutability":"pure","type":"function"}],"evm":{"bytecode":{"linkReferences":{},"object":"608060405234801561001057600080fd5b50610bbe806100206000396000f3fe608060405234801561001057600080fd5b50600436106100365760003560e01c8063ab530f9b1461003b578063d866449f1461006b575b600080fd5b6100556004803603810190610050919061077f565b61009b565b6040516100629190610890565b60405180910390f35b610085600480360381019061008091906108b2565b610156565b604051610092919061090a565b60405180910390f35b60606000825167ffffffffffffffff8111156100ba576100b9610569565b5b6040519080825280602002602001820160405280156100e85781602001602082028036833780820191505090505b50905060005b835181101561014c5761011a84828151811061010d5761010c610925565b5b6020026020010151610156565b82828151811061012d5761012c610925565b5b602002602001018181525050808061014490610983565b9150506100ee565b5080915050919050565b600080829050600081519050600081116101a5576040517f08c379a000000000000000000000000000000000000000000000000000000000815260040161019c90610a28565b60405180910390fd5b6000805b828110156102615760006101d98583815181106101c9576101c8610925565b5b602001015160f81c60f81b6102bd565b90506001846101e89190610a48565b821080156102265750610223856001846102029190610a7c565b8151811061021357610212610925565b5b602001015160f81c60f81b6102bd565b81105b1561023e5780836102379190610a48565b925061024d565b808361024a9190610a7c565b92505b50808061025990610983565b9150506101a9565b506000811180156102735750610fa081105b6102b2576040517f08c379a00000000000000000000000000000000000000000000000000000000081526004016102a990610afc565b60405180910390fd5b809350505050919050565b60007f4900000000000000000000000000000000000000000000000000000000000000827effffffffffffffffffffffffffffffffffffffffffffffffffffffffffffff191603610311576001905061053a565b7f5600000000000000000000000000000000000000000000000000000000000000827effffffffffffffffffffffffffffffffffffffffffffffffffffffffffffff191603610363576005905061053a565b7f5800000000000000000000000000000000000000000000000000000000000000827effffffffffffffffffffffffffffffffffffffffffffffffffffffffffffff1916036103b557600a905061053a565b7f4c00000000000000000000000000000000000000000000000000000000000000827effffffffffffffffffffffffffffffffffffffffffffffffffffffffffffff191603610407576032905061053a565b7f4300000000000000000000000000000000000000000000000000000000000000827effffffffffffffffffffffffffffffffffffffffffffffffffffffffffffff191603610459576064905061053a565b7f4400000000000000000000000000000000000000000000000000000000000000827effffffffffffffffffffffffffffffffffffffffffffffffffffffffffffff1916036104ac576101f4905061053a565b7f4d00000000000000000000000000000000000000000000000000000000000000827effffffffffffffffffffffffffffffffffffffffffffffffffffffffffffff1916036104ff576103e8905061053a565b6040517f08c379a000000000000000000000000000000000000000000000000000000000815260040161053190610b68565b60405180910390fd5b919050565b6000604051905090565b600080fd5b600080fd5b600080fd5b6000601f19601f8301169050919050565b7f4e487b7100000000000000000000000000000000000000000000000000000000600052604160045260246000fd5b6105a182610558565b810181811067ffffffffffffffff821117156105c0576105bf610569565b5b80604052505050565b60006105d361053f565b90506105df8282610598565b919050565b600067ffffffffffffffff8211156105ff576105fe610569565b5b602082029050602081019050919050565b600080fd5b600080fd5b600067ffffffffffffffff82111561063557610634610569565b5b61063e82610558565b9050602081019050919050565b82818337600083830152505050565b600061066d6106688461061a565b6105c9565b90508281526020810184848401111561068957610688610615565b5b61069484828561064b565b509392505050565b600082601f8301126106b1576106b0610553565b5b81356106c184826020860161065a565b91505092915050565b60006106dd6106d8846105e4565b6105c9565b90508083825260208201905060208402830185811115610700576106ff610610565b5b835b8181101561074757803567ffffffffffffffff81111561072557610724610553565b5b808601610732898261069c565b85526020850194505050602081019050610702565b5050509392505050565b600082601f83011261076657610765610553565b5b81356107768482602086016106ca565b91505092915050565b60006020828403121561079557610794610549565b5b600082013567ffffffffffffffff8111156107b3576107b261054e565b5b6107bf84828501610751565b91505092915050565b600081519050919050565b600082825260208201905092915050565b6000819050602082019050919050565b6000819050919050565b610807816107f4565b82525050565b600061081983836107fe565b60208301905092915050565b6000602082019050919050565b600061083d826107c8565b61084781856107d3565b9350610852836107e4565b8060005b8381101561088357815161086a888261080d565b975061087583610825565b925050600181019050610856565b5085935050505092915050565b600060208201905081810360008301526108aa8184610832565b905092915050565b6000602082840312156108c8576108c7610549565b5b600082013567ffffffffffffffff8111156108e6576108e561054e565b5b6108f28482850161069c565b91505092915050565b610904816107f4565b82525050565b600060208201905061091f60008301846108fb565b92915050565b7f4e487b7100000000000000000000000000000000000000000000000000000000600052603260045260246000fd5b7f4e487b7100000000000000000000000000000000000000000000000000000000600052601160045260246000fd5b600061098e826107f4565b91507fffffffffffffffffffffffffffffffffffffffffffffffffffffffffffffffff82036109c0576109bf610954565b5b600182019050919050565b600082825260208201905092915050565b7f456d70747920737472696e670000000000000000000000000000000000000000600082015250565b6000610a12600c836109cb565b9150610a1d826109dc565b602082019050919050565b60006020820190508181036000830152610a4181610a05565b9050919050565b6000610a53826107f4565b9150610a5e836107f4565b9250828203905081811115610a7657610a75610954565b5b92915050565b6000610a87826107f4565b9150610a92836107f4565b9250828201905080821115610aaa57610aa9610954565b5b92915050565b7f496e76616c696420526f6d616e206e756d6572616c0000000000000000000000600082015250565b6000610ae66015836109cb565b9150610af182610ab0565b602082019050919050565b60006020820190508181036000830152610b1581610ad9565b9050919050565b7f496e76616c696420526f6d616e20636861726163746572000000000000000000600082015250565b6000610b526017836109cb565b9150610b5d82610b1c565b602082019050919050565b60006020820190508181036000830152610b8181610b45565b905091905056fea26469706673582212202fd4b24801dd4d9bd6e63c6002520e4285634c22567450f07b5c2352def8642f64736f6c63430008130033","opcodes":"PUSH1 0x80 PUSH1 0x40 MSTORE CALLVALUE DUP1 ISZERO PUSH2 0x10 JUMPI PUSH1 0x0 DUP1 REVERT JUMPDEST POP PUSH2 0xBBE DUP1 PUSH2 0x20 PUSH1 0x0 CODECOPY PUSH1 0x0 RETURN INVALID PUSH1 0x80 PUSH1 0x40 MSTORE CALLVALUE DUP1 ISZERO PUSH2 0x10 JUMPI PUSH1 0x0 DUP1 REVERT JUMPDEST POP PUSH1 0x4 CALLDATASIZE LT PUSH2 0x36 JUMPI PUSH1 0x0 CALLDATALOAD PUSH1 0xE0 SHR DUP1 PUSH4 0xAB530F9B EQ PUSH2 0x3B JUMPI DUP1 PUSH4 0xD866449F EQ PUSH2 0x6B JUMPI JUMPDEST PUSH1 0x0 DUP1 REVERT JUMPDEST PUSH2 0x55 PUSH1 0x4 DUP1 CALLDATASIZE SUB DUP2 ADD SWAP1 PUSH2 0x50 SWAP2 SWAP1 PUSH2 0x77F JUMP JUMPDEST PUSH2 0x9B JUMP JUMPDEST PUSH1 0x40 MLOAD PUSH2 0x62 SWAP2 SWAP1 PUSH2 0x890 JUMP JUMPDEST PUSH1 0x40 MLOAD DUP1 SWAP2 SUB SWAP1 RETURN JUMPDEST PUSH2 0x85 PUSH1 0x4 DUP1 CALLDATASIZE SUB DUP2 ADD SWAP1 PUSH2 0x80 SWAP2 SWAP1 PUSH2 0x8B2 JUMP JUMPDEST PUSH2 0x156 JUMP JUMPDEST PUSH1 0x40 MLOAD PUSH2 0x92 SWAP2 SWAP1 PUSH2 0x90A JUMP JUMPDEST PUSH1 0x40 MLOAD DUP1 SWAP2 SUB SWAP1 RETURN JUMPDEST PUSH1 0x60 PUSH1 0x0 DUP3 MLOAD PUSH8 0xFFFFFFFFFFFFFFFF DUP2 GT ISZERO PUSH2 0xBA JUMPI PUSH2 0xB9 PUSH2 0x569 JUMP JUMPDEST JUMPDEST PUSH1 0x40 MLOAD SWAP1 DUP1 DUP3 MSTORE DUP1 PUSH1 0x20 MUL PUSH1 0x20 ADD DUP3 ADD PUSH1 0x40 MSTORE DUP1 ISZERO PUSH2 0xE8 JUMPI DUP2 PUSH1 0x20 ADD PUSH1 0x20 DUP3 MUL DUP1 CALLDATASIZE DUP4 CALLDATACOPY DUP1 DUP3 ADD SWAP2 POP POP SWAP1 POP JUMPDEST POP SWAP1 POP PUSH1 0x0 JUMPDEST DUP4 MLOAD DUP2 LT ISZERO PUSH2 0x14C JUMPI PUSH2 0x11A DUP5 DUP3 DUP2 MLOAD DUP2 LT PUSH2 0x10D JUMPI PUSH2 0x10C PUSH2 0x925 JUMP JUMPDEST JUMPDEST PUSH1 0x20 MUL PUSH1 0x20 ADD ADD MLOAD PUSH2 0x156 JUMP JUMPDEST DUP3 DUP3 DUP2 MLOAD DUP2 LT PUSH2 0x12D JUMPI PUSH2 0x12C PUSH2 0x925 JUMP JUMPDEST JUMPDEST PUSH1 0x20 MUL PUSH1 0x20 ADD ADD DUP2 DUP2 MSTORE POP POP DUP1 DUP1 PUSH2 0x144 SWAP1 PUSH2 0x983 JUMP JUMPDEST SWAP2 POP POP PUSH2 0xEE JUMP JUMPDEST POP DUP1 SWAP2 POP POP SWAP2 SWAP1 POP JUMP JUMPDEST PUSH1 0x0 DUP1 DUP3 SWAP1 POP PUSH1 0x0 DUP2 MLOAD SWAP1 POP PUSH1 0x0 DUP2 GT PUSH2 0x1A5 JUMPI PUSH1 0x40 MLOAD PUSH32 0x8C379A000000000000000000000000000000000000000000000000000000000 DUP2 MSTORE PUSH1 0x4 ADD PUSH2 0x19C SWAP1 PUSH2 0xA28 JUMP JUMPDEST PUSH1 0x40 MLOAD DUP1 SWAP2 SUB SWAP1 REVERT JUMPDEST PUSH1 0x0 DUP1 JUMPDEST DUP3 DUP2 LT ISZERO PUSH2 0x261 JUMPI PUSH1 0x0 PUSH2 0x1D9 DUP6 DUP4 DUP2 MLOAD DUP2 LT PUSH2 0x1C9 JUMPI PUSH2 0x1C8 PUSH2 0x925 JUMP JUMPDEST JUMPDEST PUSH1 0x20 ADD ADD MLOAD PUSH1 0xF8 SHR PUSH1 0xF8 SHL PUSH2 0x2BD JUMP JUMPDEST SWAP1 POP PUSH1 0x1 DUP5 PUSH2 0x1E8 SWAP2 SWAP1 PUSH2 0xA48 JUMP JUMPDEST DUP3 LT DUP1 ISZERO PUSH2 0x226 JUMPI POP PUSH2 0x223 DUP6 PUSH1 0x1 DUP5 PUSH2 0x202 SWAP2 SWAP1 PUSH2 0xA7C JUMP JUMPDEST DUP2 MLOAD DUP2 LT PUSH2 0x213 JUMPI PUSH2 0x212 PUSH2 0x925 JUMP JUMPDEST JUMPDEST PUSH1 0x20 ADD ADD MLOAD PUSH1 0xF8 SHR PUSH1 0xF8 SHL PUSH2 0x2BD JUMP JUMPDEST DUP2 LT JUMPDEST ISZERO PUSH2 0x23E JUMPI DUP1 DUP4 PUSH2 0x237 SWAP2 SWAP1 PUSH2 0xA48 JUMP JUMPDEST SWAP3 POP PUSH2 0x24D JUMP JUMPDEST DUP1 DUP4 PUSH2 0x24A SWAP2 SWAP1 PUSH2 0xA7C JUMP JUMPDEST SWAP3 POP JUMPDEST POP DUP1 DUP1 PUSH2 0x259 SWAP1 PUSH2 0x983 JUMP JUMPDEST SWAP2 POP POP PUSH2 0x1A9 JUMP JUMPDEST POP PUSH1 0x0 DUP2 GT DUP1 ISZERO PUSH2 0x273 JUMPI POP PUSH2 0xFA0 DUP2 LT JUMPDEST PUSH2 0x2B2 JUMPI PUSH1 0x40 MLOAD PUSH32 0x8C379A000000000000000000000000000000000000000000000000000000000 DUP2 MSTORE PUSH1 0x4 ADD PUSH2 0x2A9 SWAP1 PUSH2 0xAFC JUMP JUMPDEST PUSH1 0x40 MLOAD DUP1 SWAP2 SUB SWAP1 REVERT JUMPDEST DUP1 SWAP4 POP POP POP POP SWAP2 SWAP1 POP JUMP JUMPDEST PUSH1 0x0 PUSH32 0x4900000000000000000000000000000000000000000000000000000000000000 DUP3 PUSH31 0xFFFFFFFFFFFFFFFFFFFFFFFFFFFFFFFFFFFFFFFFFFFFFFFFFFFFFFFFFFFFFF NOT AND SUB PUSH2 0x311 JUMPI PUSH1 0x1 SWAP1 POP PUSH2 0x53A JUMP JUMPDEST PUSH32 0x5600000000000000000000000000000000000000000000000000000000000000 DUP3 PUSH31 0xFFFFFFFFFFFFFFFFFFFFFFFFFFFFFFFFFFFFFFFFFFFFFFFFFFFFFFFFFFFFFF NOT AND SUB PUSH2 0x363 JUMPI PUSH1 0x5 SWAP1 POP PUSH2 0x53A JUMP JUMPDEST PUSH32 0x5800000000000000000000000000000000000000000000000000000000000000 DUP3 PUSH31 0xFFFFFFFFFFFFFFFFFFFFFFFFFFFFFFFFFFFFFFFFFFFFFFFFFFFFFFFFFFFFFF NOT AND SUB PUSH2 0x3B5 JUMPI PUSH1 0xA SWAP1 POP PUSH2 0x53A JUMP JUMPDEST PUSH32 0x4C00000000000000000000000000000000000000000000000000000000000000 DUP3 PUSH31 0xFFFFFFFFFFFFFFFFFFFFFFFFFFFFFFFFFFFFFFFFFFFFFFFFFFFFFFFFFFFFFF NOT AND SUB PUSH2 0x407 JUMPI PUSH1 0x32 SWAP1 POP PUSH2 0x53A JUMP JUMPDEST PUSH32 0x4300000000000000000000000000000000000000000000000000000000000000 DUP3 PUSH31 0xFFFFFFFFFFFFFFFFFFFFFFFFFFFFFFFFFFFFFFFFFFFFFFFFFFFFFFFFFFFFFF NOT AND SUB PUSH2 0x459 JUMPI PUSH1 0x64 SWAP1 POP PUSH2 0x53A JUMP JUMPDEST PUSH32 0x4400000000000000000000000000000000000000000000000000000000000000 DUP3 PUSH31 0xFFFFFFFFFFFFFFFFFFFFFFFFFFFFFFFFFFFFFFFFFFFFFFFFFFFFFFFFFFFFFF NOT AND SUB PUSH2 0x4AC JUMPI PUSH2 0x1F4 SWAP1 POP PUSH2 0x53A JUMP JUMPDEST PUSH32 0x4D00000000000000000000000000000000000000000000000000000000000000 DUP3 PUSH31 0xFFFFFFFFFFFFFFFFFFFFFFFFFFFFFFFFFFFFFFFFFFFFFFFFFFFFFFFFFFFFFF NOT AND SUB PUSH2 0x4FF JUMPI PUSH2 0x3E8 SWAP1 POP PUSH2 0x53A JUMP JUMPDEST PUSH1 0x40 MLOAD PUSH32 0x8C379A000000000000000000000000000000000000000000000000000000000 DUP2 MSTORE PUSH1 0x4 ADD PUSH2 0x531 SWAP1 PUSH2 0xB68 JUMP JUMPDEST PUSH1 0x40 MLOAD DUP1 SWAP2 SUB SWAP1 REVERT JUMPDEST SWAP2 SWAP1 POP JUMP JUMPDEST PUSH1 0x0 PUSH1 0x40 MLOAD SWAP1 POP SWAP1 JUMP JUMPDEST PUSH1 0x0 DUP1 REVERT JUMPDEST PUSH1 0x0 DUP1 REVERT JUMPDEST PUSH1 0x0 DUP1 REVERT JUMPDEST PUSH1 0x0 PUSH1 0x1F NOT PUSH1 0x1F DUP4 ADD AND SWAP1 POP SWAP2 SWAP1 POP JUMP JUMPDEST PUSH32 0x4E487B7100000000000000000000000000000000000000000000000000000000 PUSH1 0x0 MSTORE PUSH1 0x41 PUSH1 0x4 MSTORE PUSH1 0x24 PUSH1 0x0 REVERT JUMPDEST PUSH2 0x5A1 DUP3 PUSH2 0x558 JUMP JUMPDEST DUP2 ADD DUP2 DUP2 LT PUSH8 0xFFFFFFFFFFFFFFFF DUP3 GT OR ISZERO PUSH2 0x5C0 JUMPI PUSH2 0x5BF PUSH2 0x569 JUMP JUMPDEST JUMPDEST DUP1 PUSH1 0x40 MSTORE POP POP POP JUMP JUMPDEST PUSH1 0x0 PUSH2 0x5D3 PUSH2 0x53F JUMP JUMPDEST SWAP1 POP PUSH2 0x5DF DUP3 DUP3 PUSH2 0x598 JUMP JUMPDEST SWAP2 SWAP1 POP JUMP JUMPDEST PUSH1 0x0 PUSH8 0xFFFFFFFFFFFFFFFF DUP3 GT ISZERO PUSH2 0x5FF JUMPI PUSH2 0x5FE PUSH2 0x569 JUMP JUMPDEST JUMPDEST PUSH1 0x20 DUP3 MUL SWAP1 POP PUSH1 0x20 DUP2 ADD SWAP1 POP SWAP2 SWAP1 POP JUMP JUMPDEST PUSH1 0x0 DUP1 REVERT JUMPDEST PUSH1 0x0 DUP1 REVERT JUMPDEST PUSH1 0x0 PUSH8 0xFFFFFFFFFFFFFFFF DUP3 GT ISZERO PUSH2 0x635 JUMPI PUSH2 0x634 PUSH2 0x569 JUMP JUMPDEST JUMPDEST PUSH2 0x63E DUP3 PUSH2 0x558 JUMP JUMPDEST SWAP1 POP PUSH1 0x20 DUP2 ADD SWAP1 POP SWAP2 SWAP1 POP JUMP JUMPDEST DUP3 DUP2 DUP4 CALLDATACOPY PUSH1 0x0 DUP4 DUP4 ADD MSTORE POP POP POP JUMP JUMPDEST PUSH1 0x0 PUSH2 0x66D PUSH2 0x668 DUP5 PUSH2 0x61A JUMP JUMPDEST PUSH2 0x5C9 JUMP JUMPDEST SWAP1 POP DUP3 DUP2 MSTORE PUSH1 0x20 DUP2 ADD DUP5 DUP5 DUP5 ADD GT ISZERO PUSH2 0x689 JUMPI PUSH2 0x688 PUSH2 0x615 JUMP JUMPDEST JUMPDEST PUSH2 0x694 DUP5 DUP3 DUP6 PUSH2 0x64B JUMP JUMPDEST POP SWAP4 SWAP3 POP POP POP JUMP JUMPDEST PUSH1 0x0 DUP3 PUSH1 0x1F DUP4 ADD SLT PUSH2 0x6B1 JUMPI PUSH2 0x6B0 PUSH2 0x553 JUMP JUMPDEST JUMPDEST DUP2 CALLDATALOAD PUSH2 0x6C1 DUP5 DUP3 PUSH1 0x20 DUP7 ADD PUSH2 0x65A JUMP JUMPDEST SWAP2 POP POP SWAP3 SWAP2 POP POP JUMP JUMPDEST PUSH1 0x0 PUSH2 0x6DD PUSH2 0x6D8 DUP5 PUSH2 0x5E4 JUMP JUMPDEST PUSH2 0x5C9 JUMP JUMPDEST SWAP1 POP DUP1 DUP4 DUP3 MSTORE PUSH1 0x20 DUP3 ADD SWAP1 POP PUSH1 0x20 DUP5 MUL DUP4 ADD DUP6 DUP2 GT ISZERO PUSH2 0x700 JUMPI PUSH2 0x6FF PUSH2 0x610 JUMP JUMPDEST JUMPDEST DUP4 JUMPDEST DUP2 DUP2 LT ISZERO PUSH2 0x747 JUMPI DUP1 CALLDATALOAD PUSH8 0xFFFFFFFFFFFFFFFF DUP2 GT ISZERO PUSH2 0x725 JUMPI PUSH2 0x724 PUSH2 0x553 JUMP JUMPDEST JUMPDEST DUP1 DUP7 ADD PUSH2 0x732 DUP10 DUP3 PUSH2 0x69C JUMP JUMPDEST DUP6 MSTORE PUSH1 0x20 DUP6 ADD SWAP5 POP POP POP PUSH1 0x20 DUP2 ADD SWAP1 POP PUSH2 0x702 JUMP JUMPDEST POP POP POP SWAP4 SWAP3 POP POP POP JUMP JUMPDEST PUSH1 0x0 DUP3 PUSH1 0x1F DUP4 ADD SLT PUSH2 0x766 JUMPI PUSH2 0x765 PUSH2 0x553 JUMP JUMPDEST JUMPDEST DUP2 CALLDATALOAD PUSH2 0x776 DUP5 DUP3 PUSH1 0x20 DUP7 ADD PUSH2 0x6CA JUMP JUMPDEST SWAP2 POP POP SWAP3 SWAP2 POP POP JUMP JUMPDEST PUSH1 0x0 PUSH1 0x20 DUP3 DUP5 SUB SLT ISZERO PUSH2 0x795 JUMPI PUSH2 0x794 PUSH2 0x549 JUMP JUMPDEST JUMPDEST PUSH1 0x0 DUP3 ADD CALLDATALOAD PUSH8 0xFFFFFFFFFFFFFFFF DUP2 GT ISZERO PUSH2 0x7B3 JUMPI PUSH2 0x7B2 PUSH2 0x54E JUMP JUMPDEST JUMPDEST PUSH2 0x7BF DUP5 DUP3 DUP6 ADD PUSH2 0x751 JUMP JUMPDEST SWAP2 POP POP SWAP3 SWAP2 POP POP JUMP JUMPDEST PUSH1 0x0 DUP2 MLOAD SWAP1 POP SWAP2 SWAP1 POP JUMP JUMPDEST PUSH1 0x0 DUP3 DUP3 MSTORE PUSH1 0x20 DUP3 ADD SWAP1 POP SWAP3 SWAP2 POP POP JUMP JUMPDEST PUSH1 0x0 DUP2 SWAP1 POP PUSH1 0x20 DUP3 ADD SWAP1 POP SWAP2 SWAP1 POP JUMP JUMPDEST PUSH1 0x0 DUP2 SWAP1 POP SWAP2 SWAP1 POP JUMP JUMPDEST PUSH2 0x807 DUP2 PUSH2 0x7F4 JUMP JUMPDEST DUP3 MSTORE POP POP JUMP JUMPDEST PUSH1 0x0 PUSH2 0x819 DUP4 DUP4 PUSH2 0x7FE JUMP JUMPDEST PUSH1 0x20 DUP4 ADD SWAP1 POP SWAP3 SWAP2 POP POP JUMP JUMPDEST PUSH1 0x0 PUSH1 0x20 DUP3 ADD SWAP1 POP SWAP2 SWAP1 POP JUMP JUMPDEST PUSH1 0x0 PUSH2 0x83D DUP3 PUSH2 0x7C8 JUMP JUMPDEST PUSH2 0x847 DUP2 DUP6 PUSH2 0x7D3 JUMP JUMPDEST SWAP4 POP PUSH2 0x852 DUP4 PUSH2 0x7E4 JUMP JUMPDEST DUP1 PUSH1 0x0 JUMPDEST DUP4 DUP2 LT ISZERO PUSH2 0x883 JUMPI DUP2 MLOAD PUSH2 0x86A DUP9 DUP3 PUSH2 0x80D JUMP JUMPDEST SWAP8 POP PUSH2 0x875 DUP4 PUSH2 0x825 JUMP JUMPDEST SWAP3 POP POP PUSH1 0x1 DUP2 ADD SWAP1 POP PUSH2 0x856 JUMP JUMPDEST POP DUP6 SWAP4 POP POP POP POP SWAP3 SWAP2 POP POP JUMP JUMPDEST PUSH1 0x0 PUSH1 0x20 DUP3 ADD SWAP1 POP DUP2 DUP2 SUB PUSH1 0x0 DUP4 ADD MSTORE PUSH2 0x8AA DUP2 DUP5 PUSH2 0x832 JUMP JUMPDEST SWAP1 POP SWAP3 SWAP2 POP POP JUMP JUMPDEST PUSH1 0x0 PUSH1 0x20 DUP3 DUP5 SUB SLT ISZERO PUSH2 0x8C8 JUMPI PUSH2 0x8C7 PUSH2 0x549 JUMP JUMPDEST JUMPDEST PUSH1 0x0 DUP3 ADD CALLDATALOAD PUSH8 0xFFFFFFFFFFFFFFFF DUP2 GT ISZERO PUSH2 0x8E6 JUMPI PUSH2 0x8E5 PUSH2 0x54E JUMP JUMPDEST JUMPDEST PUSH2 0x8F2 DUP5 DUP3 DUP6 ADD PUSH2 0x69C JUMP JUMPDEST SWAP2 POP POP SWAP3 SWAP2 POP POP JUMP JUMPDEST PUSH2 0x904 DUP2 PUSH2 0x7F4 JUMP JUMPDEST DUP3 MSTORE POP POP JUMP JUMPDEST PUSH1 0x0 PUSH1 0x20 DUP3 ADD SWAP1 POP PUSH2 0x91F PUSH1 0x0 DUP4 ADD DUP5 PUSH2 0x8FB JUMP JUMPDEST SWAP3 SWAP2 POP POP JUMP JUMPDEST PUSH32 0x4E487B7100000000000000000000000000000000000000000000000000000000 PUSH1 0x0 MSTORE PUSH1 0x32 PUSH1 0x4 MSTORE PUSH1 0x24 PUSH1 0x0 REVERT JUMPDEST PUSH32 0x4E487B7100000000000000000000000000000000000000000000000000000000 PUSH1 0x0 MSTORE PUSH1 0x11 PUSH1 0x4 MSTORE PUSH1 0x24 PUSH1 0x0 REVERT JUMPDEST PUSH1 0x0 PUSH2 0x98E DUP3 PUSH2 0x7F4 JUMP JUMPDEST SWAP2 POP PUSH32 0xFFFFFFFFFFFFFFFFFFFFFFFFFFFFFFFFFFFFFFFFFFFFFFFFFFFFFFFFFFFFFFFF DUP3 SUB PUSH2 0x9C0 JUMPI PUSH2 0x9BF PUSH2 0x954 JUMP JUMPDEST JUMPDEST PUSH1 0x1 DUP3 ADD SWAP1 POP SWAP2 SWAP1 POP JUMP JUMPDEST PUSH1 0x0 DUP3 DUP3 MSTORE PUSH1 0x20 DUP3 ADD SWAP1 POP SWAP3 SWAP2 POP POP JUMP JUMPDEST PUSH32 0x456D70747920737472696E670000000000000000000000000000000000000000 PUSH1 0x0 DUP3 ADD MSTORE POP JUMP JUMPDEST PUSH1 0x0 PUSH2 0xA12 PUSH1 0xC DUP4 PUSH2 0x9CB JUMP JUMPDEST SWAP2 POP PUSH2 0xA1D DUP3 PUSH2 0x9DC JUMP JUMPDEST PUSH1 0x20 DUP3 ADD SWAP1 POP SWAP2 SWAP1 POP JUMP JUMPDEST PUSH1 0x0 PUSH1 0x20 DUP3 ADD SWAP1 POP DUP2 DUP2 SUB PUSH1 0x0 DUP4 ADD MSTORE PUSH2 0xA41 DUP2 PUSH2 0xA05 JUMP JUMPDEST SWAP1 POP SWAP2 SWAP1 POP JUMP JUMPDEST PUSH1 0x0 PUSH2 0xA53 DUP3 PUSH2 0x7F4 JUMP JUMPDEST SWAP2 POP PUSH2 0xA5E DUP4 PUSH2 0x7F4 JUMP JUMPDEST SWAP3 POP DUP3 DUP3 SUB SWAP1 POP DUP2 DUP2 GT ISZERO PUSH2 0xA76 JUMPI PUSH2 0xA75 PUSH2 0x954 JUMP JUMPDEST JUMPDEST SWAP3 SWAP2 POP POP JUMP JUMPDEST PUSH1 0x0 PUSH2 0xA87 DUP3 PUSH2 0x7F4 JUMP JUMPDEST SWAP2 POP PUSH2 0xA92 DUP4 PUSH2 0x7F4 JUMP JUMPDEST SWAP3 POP DUP3 DUP3 ADD SWAP1 POP DUP1 DUP3 GT ISZERO PUSH2 0xAAA JUMPI PUSH2 0xAA9 PUSH2 0x954 JUMP JUMPDEST JUMPDEST SWAP3 SWAP2 POP POP JUMP JUMPDEST PUSH32 0x496E76616C696420526F6D616E206E756D6572616C0000000000000000000000 PUSH1 0x0 DUP3 ADD MSTORE POP JUMP JUMPDEST PUSH1 0x0 PUSH2 0xAE6 PUSH1 0x15 DUP4 PUSH2 0x9CB JUMP JUMPDEST SWAP2 POP PUSH2 0xAF1 DUP3 PUSH2 0xAB0 JUMP JUMPDEST PUSH1 0x20 DUP3 ADD SWAP1 POP SWAP2 SWAP1 POP JUMP JUMPDEST PUSH1 0x0 PUSH1 0x20 DUP3 ADD SWAP1 POP DUP2 DUP2 SUB PUSH1 0x0 DUP4 ADD MSTORE PUSH2 0xB15 DUP2 PUSH2 0xAD9 JUMP JUMPDEST SWAP1 POP SWAP2 SWAP1 POP JUMP JUMPDEST PUSH32 0x496E76616C696420526F6D616E20636861726163746572000000000000000000 PUSH1 0x0 DUP3 ADD MSTORE POP JUMP JUMPDEST PUSH1 0x0 PUSH2 0xB52 PUSH1 0x17 DUP4 PUSH2 0x9CB JUMP JUMPDEST SWAP2 POP PUSH2 0xB5D DUP3 PUSH2 0xB1C JUMP JUMPDEST PUSH1 0x20 DUP3 ADD SWAP1 POP SWAP2 SWAP1 POP JUMP JUMPDEST PUSH1 0x0 PUSH1 0x20 DUP3 ADD SWAP1 POP DUP2 DUP2 SUB PUSH1 0x0 DUP4 ADD MSTORE PUSH2 0xB81 DUP2 PUSH2 0xB45 JUMP JUMPDEST SWAP1 POP SWAP2 SWAP1 POP JUMP INVALID LOG2 PUSH5 0x6970667358 0x22 SLT KECCAK256 0x2F 0xD4 0xB2 BASEFEE ADD 0xDD 0x4D SWAP12 0xD6 0xE6 EXTCODECOPY PUSH1 0x2 MSTORE 0xE TIMESTAMP DUP6 PUSH4 0x4C225674 POP CREATE PUSH28 0x5C2352DEF8642F64736F6C6343000813003300000000000000000000 "},"methodIdentifiers":{"RomanToInt(string)":"d866449f","batchRomanToInt(string[])":"ab530f9b"}}}}}